:020000040800F2
:1000000000000120556C0508F16C0508DDB1010800
:1000100031B00108F16C0508F16C05080000000022
:10002000000000000000000000000000F16C050866
:10003000F16C050800000000F16C05087DCB00089C
:10004000F16C0508F16C0508F16C0508F16C050808
:10005000F16C0508F16C05080DA0000815A000085A
:100060001DA0000825A000082DA00008059E00087E
:10007000199E00082D9E0008419E0008559E00080C
:10008000699E00087D9E0008F16C0508F16C05086A
:10009000F16C0508F16C0508F16C050835A0000845
:1000A000CDC20008C9C10008DDC20008B9C10008FE
:1000B000F1C1000801C2000811C20008259A000819
:1000C000199A0008599A00084D9A0008F16C050821
:1000D000F16C050825A8040831A804083DA8040807
:1000E0003DA00008F16C0508F16C0508EDC20008A0
:1000F000A5C20008F16C050895C20008919E000891
:10010000F16C0508F16C050821C20008F16C0508C6
:1001100049A8040855A8040831C20008E9EC0408FD
:10012000A59E0008B99E0008CD9E0008E19E00082B
:10013000F59E000800000000000000000000000024
:1001400000000000000000000000000059E2040868
:10015000099F00081D9F0008319F000861A804083E
:100160008D9A0008819A0008F16C0508F16C050869
:10017000F16C0508F16C05080000000000000000AB
:10018000F16C0508F16C0508F16C0508F16C0508C7
:10019000F16C0508F16C050800000000F16C050821
:1001A000000000000000000000000000F16C0508E5
:1001B000F16C0508F16C050800000000000000006B
:1001C000000000000000000000000000000000002F
:1001D000000000000000000000000000F16C0508B5
:10800000084A0346D0F8EC005268D3F8F810121A68
:1080100000209142B8BFC3F8F820012283F8242140
:10802000704700BF001000E030B4046900234168CD
:108030004025E46882690C3154624469956053605C
:1080400093631160C2E90333C2E90533C2E9073320
:10805000C2E90A33C2E90C3394B1C2694FF48030EB
:10806000E468116054629062C2E90133C2E90333EB
:10807000C2E90533C2E90733C2E90B33C2E90D3364
:1080800030BC7047114A037A0168D35C10B4CC58F5
:10809000CA1824F00104CC501368DB07FCD4037D1C
:1080A0001F2B09D9203B20225DF8044B02FA03F371
:1080B00043F01803CB60704720225DF8044B02FAAE
:1080C00003F343F018038B60704700BFA80F060846
:1080D0001B4B016803F57D7C02E02C3363452BD0FC
:1080E0001A688A42F9D170B593F804E0427996454E
:1080F0000BD02C33634505D01A688A42F4D02C3358
:108100006345F9D14FF0FF3070BD9E468468002270
:10811000DEF80C50A54208D001320EF10C0E032AF5
:10812000E7D0DEF80C50A542F6D1DEF81050C66854
:10813000B542F1D150B270BD4FF0FF30704700BF73
:10814000808B05084368426D30B49A61EFF3118269
:10815000502383F312884168D2B2856C0B68046D9A
:1081600023EA050323430B6082F311884369816886
:108170001A68096822F00102D0E908541A60826A7C
:108180001D605C615A60D0E90B429C60DA6000239C
:10819000B0F86C2030BCCA6203777047002A4FEAFF
:1081A000014C034630B508BFE64600F1C00514BFD8
:1081B0008E468C46002419680C3353F8042C43F87F
:1081C000084C41EA0C0142EA0E02AB4243F80C1C97
:1081D00043F8042CEFD1D0F8C03043EA0E03C0E9D5
:1081E0003144C0F8C03030BD83695969B3F810C05C
:1081F0000A6830B49C6822F0010224680A60E268D0
:1082000022EA0C02E260027D00681F2A06D9203AA9
:108210000824456894402C4242D0FEE708240568B3
:1082200094402C42F9D1202404FA02F28260254ABB
:108230001278002A32D01A7F012A36D0D3F80021D2
:108240000132C3F80021EFF31181502282F312882A
:108250005868C9B29D6C0268DC6C22EA05022243B0
:10826000026081F311885A699968D3E90D40096861
:1082700014605061D3E90F40546090605C6CB3F8B7
:10828000B400D4600124C8621068204310601A8AC8
:108290001C7783F8FD40CB681343CB6030BC70473C
:1082A000202404FA02F2C260C1E70022D3F80401DC
:1082B00083F8FD2001300A68C3F8040122F00102AE
:1082C0000A60EBE7A801002010B40C4C6368002B97
:1082D00011DD002004F1080C0146DCF8AC3003F19C
:1082E000C00259600C339342FBD1013063680CF536
:1082F000867C8342F1DC5DF8044B7047A8010020C6
:10830000704700BF024B03EB401393F855047047CE
:10831000A8010020D0E90920131A5842584170479B
:1083200090F8573830B53BB990F85518012490F8BB
:108330005638DAB2914200D830BD04FA03F2B0F8F0
:108340005E5801332A43A0F85E28F2E7037902461B
:1083500013F0010006D0D2E90731D2685B1A013A66
:1083600003EA0200704710B50379044613F00103D5
:108370000ED0FFF7EBFF034650B1226A6369E16854
:108380009B5C0132B2FBF1F0DBB201FB10222262F6
:10839000184610BD03799B070AD5436A8269D154F8
:1083A000436A02690133B3FBF2F102FB113343620A
:1083B00070477047017170470379014613F002005E
:1083C00007D00B69D1E90921013B521A1A40D2B2F8
:1083D000981A704710B584464FEA810E102312F4A4
:1083E000004F4FEA420214BF0E240724013B92B211
:1083F000CCF80040F444F2D100EB81128C0103511F
:10840000122042F8213010BD10B584464FEA810E8B
:108410000424130B013C4FEA021203EB430392B214
:1084200003F11803CCF80030F444F2D100EB01134F
:108430000A018450062043F8214010BD704700BF58
:10844000704700BF00EB4000024B03EBC00393F802
:1084500049057047A8010020064B93F8F825824291
:1084600006D900EB400003EBC003D3F84C0570477E
:1084700000207047A80100200B4890F8FC1589B136
:1084800001EB4101002300F5A760490010B41C4630
:1084900050F82320063302B114608B42F8D15DF806
:1084A000044B7047704700BFA80100200B4890F8AC
:1084B000FC1589B101EB4101002300F5A7604900DB
:1084C00010B41C4650F82320063302B114608B42CE
:1084D000F8D15DF8044B7047704700BFA801002039
:1084E000214B1B78002B3DD12DE9F0431F4C94F814
:1084F000FC25AAB304F5A7624FF0500E1C4F4FF0B5
:108500002C0C1C4E1D4607E0013394F8FC1552F864
:10851000180B8B42056023DA117C0029F4D05068D7
:108520004FF0FE08810AA1F580115229314498BF0D
:1085300091F8F483EFF311818EF31288D0F8249030
:108540000CFB0878C9B209F10109C8F82890D0F8E5
:10855000148048F00108C0F8148081F31188D3E733
:10856000BDE8F083704700BF00000120A801002093
:1085700090190120808B050800EE100AB8EE400A21
:10858000704700BFBCEEC00A10EE103A98B27047B8
:1085900007280AD800EB8000054B03EB4013B3F823
:1085A0000006B0FA80F0400970470020704700BF15
:1085B000A8010020072807D8044B00EB8000012207
:1085C00003EB401383F80226704700BFA801002088
:1085D000072808D8044B03EB401393F8542412B136
:1085E000012283F83A247047A8010020072808D800
:1085F000054B03EB4013B3F83804B0FA80F04009A0
:1086000070470020704700BFA8010020054B93F879
:10861000F825824204D903EB4013D3F84404704791
:1086200000207047A80100200346012200205A774D
:10863000704700BF826908B50346006BD96A0244DF
:108640009A6101B18847002008BD00BF436A024615
:108650001B681B6A5B685B7813F0010008BF5077EA
:10866000704700BFC2628161704700BF704700BFA2
:10867000043070470C4B93F89822D3F894120244BC
:108680000144D2B2C3F8941283F8982293F8982246
:10869000120605D593F8982282F0800283F898227A
:1086A000024B01225A7070479019012000000120EE
:1086B0002DE9F84F164FD7F89C52ED0A23D000262B
:1086C000DFF850A007F52879B0467419D7F8A01242
:1086D0004FF01003524648BF0134D1F828B0484645
:1086E000C7F8CC826410E102D8470F280BDD094B94
:1086F00003F1100153F8042B013207D18B42F9D159
:108700002546B542E1DCE802BDE8F88F661CF8E7D3
:108710009019012000000020194BD3F8D412D3F88F
:10872000D8228A1A322A05DCD3F8EC228A1A002AC7
:1087300011DC7047D3F8DC1249B193F8E82288883D
:1087400002F001020968120100FA02F28A610022B5
:10875000C3F8EC227047D3F8DC226AB110683231DA
:10876000928810B44469C3F8EC1222425DF8044BBD
:1087700018BF1204826170473231C3F8EC1270479F
:1087800090190120074AD2F8DC324BB192F8E82266
:108790009988186802F001031B0101FA03F3836151
:1087A0000020704790190120044B4FF4007C0020FA
:1087B000D3F8F832A2F800C00B607047901901207E
:1087C000002070470120704701207047002070474B
:1087D000134BD0F8E0105B68D0F8E82010B50446E1
:1087E000581A824200DC22B9D4F8EC200A44C4F8BA
:1087F000E42094F8D820C4F8E030012A05D0D4F859
:10880000DC300133C4F8DC3010BD04F1F001201D70
:1088100041F0BEFAD4F8DC300133C4F8DC3010BDCE
:10882000001000E0CB070DD430B590F828308DB0A3
:10883000C468012B07D0B4F1807F01D901230377ED
:108840000DB030BD7047194B456AD3E9CA13B1EB7F
:10885000930F4FEA93024FF0020306D252085B00D7
:1088600091429BB201D2FF2BF8D9B4F1807FAB804B
:10887000E6D90122002301A9B724027728460492F1
:108880008DF814208DF828208DF804400B93CDE945
:10889000021302A9CDE90633CDE9083341F078FA95
:1088A0002A68136A002BFCD1CAE700BF9019012087
:1088B00030B590F828308BB00446012B08D0407FAB
:1088C00010B901200BB030BD002363770BB030BD71
:1088D000456A2B681A7B22BB637F002BF1D01349BA
:1088E0000220002301220290081D8DF80C208DF833
:1088F00020200993CDE9001069462846CDE90433CC
:10890000CDE9063341F044FA2A68136A002BFCD102
:10891000074B5B7DD84303F0010300F00100637750
:10892000D4E71B6A002BD7D00020CBE71000002033
:108930000000002030B504468BB094F82830012B9D
:1089400008D0637F0BB10023637701200BB030BDEB
:108950001B6A23B1656A2B681A7B002AF8D1637FF2
:10896000002BF2D010490220002301220290081DA2
:108970008DF80C208DF820200993CDE90010694670
:108980002846CDE90433CDE9063341F001FA2A68DF
:10899000136A002BFCD1054B5B7D03F00102DB0762
:1089A0006277D2D5C9E700BF100000200000002088
:1089B000214A002330B5044695B0101D1F4D069383
:1089C000019002200B931093139311930290207F38
:1089D00000920495CDE90E3301238DF80C300793F6
:1089E0008DF820308DF834308DF8483002F10803CE
:1089F000083A0593031D0A920C93114B0993636A7D
:108A00001A68136A002BFCD1A0B10E480A0E00F1BF
:108A10001A0342760A0A9970080C69465A7018704F
:108A2000606A41F0B5F9636A1A68136A002BFCD1D9
:108A300015B030BD044BEDE7200000204D86000846
:108A400029860008000000201900002010B594B00D
:108A500004465022074968464FF0E0FC6946606AC8
:108A600041F096F9636A1A68136A002BFCD114B0BE
:108A700010BD00BFC88F0508F8B50546406A0068FC
:108A8000046A002CFCD12C7FA869002C36D0234E20
:108A9000040E052786F82D402E36B0704FEA104C94
:108AA000000A1F4C86F800C0012B70704FF00000C8
:108AB0000E68676326641668A6642E63A06520D0DE
:108AC000022B1AD15368012220651E444968E365D0
:108AD000144B84F84C0061652E6384F86020636653
:108AE000114B6A7FA3F11401686A002A08BF194676
:108AF00041F04EF9EB6A5BB1286BF8BD04270B4ED1
:108B0000CBE7084A84F84C306065E0652265E7E70A
:108B10006B6A1A68136A002BFCD1EDE70000002095
:108B20000000012035860008180001202D000020DB
:108B300000B583B08161019201A9049A00930123D9
:108B4000C2626A46FFF798FF03B05DF804FB00BFFE
:108B500070B51D46436A94B006461B681C6A002C1B
:108B6000FCD1314B0B9203F13C0230480694009249
:108B700003F14002049003F13400019202220590B7
:108B8000029201228DF820408DF80C208DF83420BF
:108B90008DF84820327F0C95101D1394CDE90944BF
:108BA000CDE90E44CDE910440790002A3AD00A0ED0
:108BB000363303F8012C0A0C99701D4C090A1A70FF
:108BC0005970706AD4E9CA32B3EB920F4FEA92013E
:108BD0004FF0020206D2490852008B4292B201D2F3
:108BE000FF2AF8D9737F8280D3B1694641F0D0F86B
:108BF000706A03681A6A002AFCD10222D4E9CB34D5
:108C0000B4EB930F4FEA930106D2490852008C420D
:108C100092B201D2FF2AF8D98280284614B070BDE2
:108C200005A9E3E73533C6E7000000204D860008BC
:108C3000901901208269F0B592F8E4308BB00546B6
:108C4000012B27D0023B012B2FD892F85431EC4650
:108C5000D2F89C2063F07F03154C13708669D6F818
:108C6000A0305F1C0FCCACE80F00D6F89C30CDE9EB
:108C700000370FCCACE80F0094E803008CE8030049
:108C8000694606F1100041F083F8AA6911690B6A80
:108C9000002BFCD1D2F8A0305A8852BAEA819A88C7
:108CA00052BA2A82DB885BBA6B8201200BB0F0BD1E
:108CB00018900508F0B590F8E4308BB00446D0F871
:108CC000A060012B4BD034D9023B012B2ED890F859
:108CD0005531EC46D0F89C2063F07F03434D137070
:108CE000D0F8A0305F1C0FCDACE80F00D4F89C305A
:108CF000CDE900370FCDACE80F0095E803008CE814
:108D00000300694604F1100041F042F82269136A39
:108D1000002BFCD173885BBAA4F8D030B3885BBA5F
:108D2000A4F8D230F3885BBAA4F8D43001200BB099
:108D3000F0BDD0F89C304FF0FF3205211A605A6028
:108D40009A60DA60D0F8E830C0F8F810B3F57A7FAE
:108D50001FD8032380F8E43001200BB0F0BD90F859
:108D6000542190F855319B1A5B100133DBB236F871
:108D7000132006EB430653BAA0F8D03073885BBAD1
:108D8000A0F8D230B3885BBAA0F8D43001200BB081
:108D9000F0BD03691A7B2AB35B691BB390F8983066
:108DA00003B390F854310122D0F89C0063F07F03A4
:108DB000C4F8A4400E49037094F8553194F8540156
:108DC00084F808211B1A84F8E420D4F8A020073383
:108DD000C4F80C110132D4F89C10C4E94023C4F843
:108DE000FC10A3E7022384F8E4309FE718900508FD
:108DF00001800008F8B50C4B1D685A691540054004
:108E00005D617DB1094F0126B5FA85F4C4F11F04F7
:108E100007EB840306FA04F4D3F834030368984795
:108E2000A543F1D1F8BD00BF003C014090190120DD
:108E300002692DE9F843C36812EA030828D0054601
:108E40000E464FF00047B8FA88F327FA03F21B3BAF
:108E5000D24308EA02082A61042B16D8DFE803F09F
:108E60003B30251A0300B36A002B3FD003F1FF39D2
:108E700000231FFA89F9B362746A34B1236820466B
:108E8000494698476468002CF8D1B8F1000FDAD150
:108E9000BDE8F88370680028F7D0696B036889B271
:108EA0009847B8F1000FCED1F2E7B0680028ECD0B7
:108EB000A96B036889B29847B8F1000FC3D1E7E7FF
:108EC000F0680028E1D0E96B036889B29847B8F1EF
:108ED000000FB8D1DCE730690028D6D0296C0368D0
:108EE00089B29847B8F1000FADD1D1E7EB6A1FFA0C
:108EF00083F9C1E72DE9F041DFF8B48008EB4017B2
:108F000097F854340BB9BDE8F08104460D4646018C
:108F10004FF0F2FDC0BB2448464400EB4410A6F8D5
:108F200038544FF0F9FD98F80030D6F85024A3B12A
:108F3000D6F83C140124D2F8AC308C4003F1C001C7
:108F4000420010F4004F90B202D15A6822435A6096
:108F50000C339942F4D1BDE8F081D6F83C140124D9
:108F6000D2F8AC3001F1100203F1C001944042008C
:108F700010F4004F90B202D15A6822435A600C3369
:108F80008B42F4D1BDE8F081084B93F8D42302EB77
:108F9000420203EBC203234493F88153002DBAD05D
:108FA000012387F83A34B6E7E00500209019012044
:108FB000A801002010B504464EF0C8FD0146204629
:108FC00089B2BDE8104095E738B50B4D00EB400085
:108FD00005F5A763C40003EBC003254493ED027AB3
:108FE000D3ED037AE7EE007AB0EE670A4EF0AEFDFD
:108FF000D5F83835186038BDA8010020836910B550
:109000001A4C04EB8303D3F8F80344F0FDF9B4F8E9
:1090100018340C2B0ED8DFE803F0220D0D0D1B0DBC
:109020000D0D070D0D0D1400D4F8D823D36823F4CB
:109030000063D3600122002384F8152484F81A34D5
:1090400010BDD4F8D823D36823F48053D360F1E75C
:10905000D4F8D823D36823F48063D360EAE7D4F844
:10906000D823D36823F40073D360E3E79019012079
:1090700080699C3044F0C8B9F8B5830AA3F5801321
:10908000522B52D804465748034493F8F4030D2852
:109090004BD8554D860105EB8013D3F81C74A742BD
:1090A00043D00139C3F81C4489B2C3F82814D5F859
:1090B0002C13B1FBF2F100220139C3F82C24C3F8C0
:1090C0002424C3F8302493F85924C3F8201402F060
:1090D000FF015AB345490223AF1901EB8011204625
:1090E00087F85934043144F0C5FD0123B4F1804FB1
:1090F00087F859343E4BA4EB0303B3FA83F34FEAEA
:10910000531316D0ABB93B4A944257D002F5806254
:10911000944253D0384902F57C42944218BF8C42A5
:109120002FD002F5705294422BD0F8BD83F858141A
:10913000D0E7AA1992F858140129F6D0022182F832
:1091400059142E49A06801400020A160012182F835
:109150005914AA19022182F859146268A16803B946
:1091600008B122F470022E4422F0700221F0800136
:10917000012000236260A16086F8590486F8583403
:10918000F8BDAA1992F858140129CED0022182F80C
:1091900059141A49A06801401948A1600121201AF8
:1091A00082F859140021B0FA80F082F85814124A5B
:1091B00040099442CDD00028CBD1F8BDAB1993F82B
:1091C0005824012AB1D002210C4A83F85914A0680E
:1091D0000240A260012283F8592483F8591462687E
:1091E000A168C0E7808B050890190120AC1D012003
:1091F0000000014000040040000C00408800FEFF19
:1092000000040140F8B5A0F507642379DB0725D5F4
:10921000657994F8543805F001073D46FBB1D4F860
:1092200048341A68D36A5B08536294F8583823B1FB
:10923000B4F862380133A4F8623885F00101606C3B
:109240004BF06EFD012384F85738002384F855381D
:1092500084F85638A4F85E3884F85438F8BD94F889
:109260005768012E03D194F8553884F856382046B3
:10927000FFF756F84EB9012385EA030184F8573801
:10928000606CBDE8F8404BF04BBD0023394684F8D4
:109290005738F5E770B505460726084C013E00D162
:1092A00070BD94F9000014F011FC031E04DB61781A
:1092B000EA189171A278EA540434EFE74090050867
:1092C00038B58569002D3DD02C68236A1B7B5BBBBC
:1092D00020464DF0F3FB236A5B6803B3236A5A68A8
:1092E000236A22F01F025968236A01F01F019B685C
:1092F0001F33194421F01F01BFF34F8F00290ADDEE
:1093000002F12003114410488B42C0F85C221A4637
:1093100003F12003F8D1BFF34F8FBFF36F8F2846BF
:10932000BDE8384041F004B8AB68002BD0D01A68D3
:1093300020469B8893614DF0C1FB236A5B68002B3C
:10934000CCD1ECE738BD00BF00ED00E038B5846952
:1093500004B938BD256828464DF0B0FB2B6A1B7B4D
:1093600023B92046BDE8384040F0E2BFA368002B97
:10937000F7D01A6820469B889361BDE8384040F0DA
:10938000D7BF00BF2DE9F843DDF820800F46164611
:109390000021202204461D464FF036F9B8F1000F97
:1093A0000CD0D8F80030B8F80A20E3811B0C2382D7
:1093B000D8F804306282E3821B0C238338464DF0D8
:1093C000D7FBF30619D4431EB8B107EB000C01E03C
:1093D000013B12D31CF801EDBEF12E0FF8D1C01ADB
:1093E00003F10109421EB944032AA8BF0322082B36
:1093F000A8BF082390461A4606E008280246B94648
:109400004FF00008A8BF08224FF02033394620460D
:10941000236063604FF002F8164B04F108004246E7
:109420004946238183704EF0F9FF611EE21D11F859
:1094300001CFACF16103ACF1200C192B98BF81F87E
:1094400000C09142F3D104F10A0011F8013FA3F1E9
:109450006102203B192A98BF0B708142F5D1182375
:1094600065832D0CE6722373099BA582E361BDE839
:10947000F88300BF202020002DE9F04FDFF8509442
:1094800085B0D9F8D402C9F8D802002B5ED00C46BA
:10949000154601F5FE7603EB020B1DE0002D62D0B0
:1094A000D9F80433AB4200F0C580D9F80033AB42A1
:1094B00000F0F780D9E9C231AB424BD88D42C0F001
:1094C0007281691A204648F0FFFD013504F50074E9
:1094D00006F500765D4539D0D9F81023AA42DDD8CB
:1094E000AA1AD9F82073D308396B02F0070802339F
:1094F0008B4202D3BA6B93420BD939461846039379
:1095000048F0B2FD039B0746002800F06C81C9F8C3
:1095100020033A79002A40F01D81D7F828A0BAF13B
:10952000000F00F059813A6B013520464FF400716D
:109530009B1AFA6804F5007406F5007608EBC30878
:109540003B4602EB4822D0475D45C5D1002005B01F
:10955000BDE8F08F8D42B4D24FF400720021204656
:109560004FF052F8B1E74FF40072294620464FF011
:109570004BF88023CA4A84F8BE310C2384F8C231E8
:10958000D9F80013D9F8F8329142C4F8C611C4F8DA
:10959000CA3100F30D81C34A013BC34F82FB010274
:1095A000C81787FB01C70A44C0EB6212C0EB273023
:1095B000BE4F87FB02C7C2EB821C84F8C10180103A
:1095C000A1EB0C01174420F03F0001310843D117F3
:1095D000C1EBE71184F8C0010A4484F8BF21B04A06
:1095E000934200F3F180AF4AAF4882FB0312D917D0
:1095F00080FB03701A44C1EB6212C1EB2031AB480F
:1096000080FB0270C2EB821784F8C5118910DB1B46
:10961000104421F03F0101331943D317C3EBE0138A
:1096200084F8C4111A4484F8C3214AF65523A4F8D7
:10963000FE314AE74FF0FF3300274FF4F072201D50
:1096400084F8EC31394684F8ED3184F8EE3184F851
:10965000EF315223237063706123A37084F8E731E4
:109660004123E37084F8E631722384F8E43184F80E
:10967000E531D9F81833C4F8E8314EF0C5FF552369
:10968000C4F8F07184F8FE316FF05503C4F8F4713A
:10969000C4F8F87184F8FC7184F8FD7184F8FF3126
:1096A00013E74FF40072002120464EF0ADFF804BCF
:1096B000022203CB45F6EB0322742273238090230E
:1096C000A273A370F82384F82C200822C4F80300A6
:1096D0006273C4F807106375D9F80013D9F8F8322B
:1096E0005B1A2362D9E9C2135B1A4AF655216362F9
:1096F0000023E372E3736377A377E37784F82D3075
:1097000084F82E3084F82F3084F83130694BA3610F
:109710003E232377012384F83030802384F84030BF
:10972000654BC4F84230654B84F84620A4F8FE111E
:10973000634A03CBC4F84B101988C4F847009B78E0
:10974000A4F84F1084F8513003CAC4F85200C4F88A
:109750005610BAE64FF40072002120464EF054FF36
:109760003B6CB8F1000F45D104F1200A002B00F04A
:1097700081803B6B112253492046CDE90088FFF7D9
:1097800001FE3B6C1A6C002A00F081801B6B504676
:1097900011224D49CDE90088FFF7F4FD04F1400A9C
:1097A0004FF4E07871E0E91A204648F08DFC8CE631
:1097B000FF22013B84F8C1214FF6FF72A4F8BF21BC
:1097C000374A93427FF70FAFFF2384F8C5314FF636
:1097D000FF73A4F8C33128E751464FF400722046C6
:1097E0004EF012FF71E6231F384A43F8042F9E42C1
:1097F000FBD16AE6002B7F6C14BF02230123C3EB6D
:109800000813002F3FF461AE013BBF6C002B01DD5C
:10981000002FF9D1A2464FF40078002F3FF455AE47
:109820000AEB080303959A460BE00025A8F12008EF
:10983000CDE900E5FFF7A6FDBF6CCFB1B8F11F0F72
:1098400016D93D7907F11C0E112239683B6BAAEB42
:109850000800002DE9D17A79A8F120083D6942F08D
:109860002102CDE900E5FFF78DFDBF6C002FE5D1AA
:10987000039D2AE6CDE9008843464FF4F07808229C
:10988000D9F8FC122046FFF77DFD7F6CC5E75046F6
:10989000434611220C49CDE90088FFF773FD7DE7AF
:1098A000FF03FB008320088297554541818080801B
:1098B000F40E06083F00FF0029940E0D000F060865
:1098C0000C0F0608EC0E0608F00E0608DEADBEEF23
:1098D0009019012010B490F8443000F10801484A72
:1098E000012BC2F8DC176DD08368464CD968A342BF
:1098F00021F46001D960D96841F46001D960996BA5
:1099000021F440119963996B41F480119963996B2B
:1099100021F4F8419963996B41F4884199639968FE
:1099200021F47021996099689960996821F4401137
:10993000996099689960596821F480615960596803
:1099400021F48051596059696FF30B0159615969CC
:10995000596148D0D9682B4C21F0E061A342D9600D
:10996000D96841F0E061D960996B21F440119963A5
:10997000996B41F480119963996B21F47821996373
:10998000996B41F410219963996821F470219960D1
:1099900099689960996821F4401199609968996073
:1099A000596821F480615960596821F480515960E7
:1099B00099696FF30B019961996999611AD0002334
:1099C00080F844301048114B848DC18D408D091BA7
:1099D000C2F8E447C2F8E0075DF8044B93FBF1F3EB
:1099E000C2F8E8377047D4F8041341F40001C4F812
:1099F0000413AFE706494B6843F400034B60DEE70E
:109A00009019012000200140007AF01F80380100E9
:109A100000230140704700BF014843F0C9BD00BFAB
:109A200090210120084810B4D0F80038D0F834480C
:109A300099691A682CB1234600F500605DF8044B63
:109A400018475DF8044B704790190120014843F016
:109A5000AFBD00BFF0210120084810B4D0F8603835
:109A6000D0F8944899691A682CB1234600F506602D
:109A70005DF8044B18475DF8044B704790190120BE
:109A8000014843F095BD00BF50220120084810B4A2
:109A9000D0F8C038D0F8F44899691A682CB1234638
:109AA00000F50C605DF8044B18475DF8044B7047F7
:109AB00090190120F0B506688C680F68B569002F11
:109AC00056D02E4B3B40B3F1005F4FD007F01F0C38
:109AD00004F11F0327F01F029C442CF01F0CBFF35E
:109AE0004F8FBCF1000F0BDD944402F12003DFF82F
:109AF00090E06345CEF868221A4603F12003F8D1BE
:109B0000BFF34F8FBFF36F8F02684FF480636B61B9
:109B100053696F602C6243B34B68F56963B31E46AB
:109B2000164B3340B3F1005F1AD006F01F0226F047
:109B30001F011F32224422F01F02BFF34F8F002A61
:109B40000ADD0A4401F120030D489342C0F8701267
:109B5000194603F12003F8D1BFF34F8FBFF36F8F86
:109B60004FF480636E606B612C62F0BD3246CCE7CF
:109B70003B463246034FCAE7034EF3E70000FFFFC0
:109B800000ED00E044000020480000202DE9F041F5
:109B90000468D4E904351A7DD3E90061002D4DD065
:109BA0001F2AA86138D820202F6800FA02F242F05C
:109BB0001802B2602A7D1F2A39D9203A202000FAE3
:109BC00002F242F01802FA606A6800200860106031
:109BD0003046116841F01001116093F80880A269C5
:109BE00041464AF04DFE2D7AE269384629464AF050
:109BF00047FE274B626813F80800595D335843F05D
:109C0000010333507B5843F001037B50536843F00A
:109C100003035360BDE8F081203A20202F6800FA4A
:109C200002F242F01802F2602A7D1F2AC5D82020D5
:109C300000FA02F242F01802BA60C5E71F2A9861E2
:109C40001ED8202000FA02F242F01802B260002270
:109C500030460A600A6842F010020A601D7AA26962
:109C600029464AF00DFE0A4B6268595D735843F06D
:109C700001037350536843F002035360BDE8F08161
:109C8000203A202000FA02F242F01802F260DEE7E9
:109C9000A80F060810B1036882889A61704700BF58
:109CA00018B1838802681B0493617047D3B2012BFB
:109CB0001DD802EB42020F4B10B54FEA820E03F59E
:109CC000217C0EF1080402E01C3363450DD01A78A4
:109CD0008242F9D15A788A42F6D11A59002AF3D031
:109CE0000EF1040E03EB0E0010BD002010BD00208D
:109CF000704700BF5890050810B40C4C002304F6C0
:109D00006C1C01E0152B0CD003EB430201331CF853
:109D100002108142F6D1144494F96E095DF8044BA7
:109D200070474FF0FF305DF8044B704790190120E9
:109D3000D3B2022B21D802EB420270B54FEA820E59
:109D40000F4C002223460EF10C0503E001322C33A8
:109D5000172A10D01E68B042F8D193F804C08C4581
:109D6000F4D15E59002EF1D02C210EF1080301FB35
:109D70000233E01870BD002070BD0020704700BFA6
:109D8000808B0508002838D0002330B51B4D90F893
:109D900004C005F66C1401E0152B2CD003EB430234
:109DA0000133A15C6145F7D11544046890F805E0E2
:109DB00095F96E39DAB2022A1DD803EB4303104835
:109DC00000224FEA830C03460CF10C0503E001323C
:109DD0002C33172A0FD019688C42F8D119797145A4
:109DE000F5D159590029F2D02C210CF1080301FBBF
:109DF0000233184430BD002030BD70479019012057
:109E0000808B05080348D0F88C300BB17C301847A4
:109E1000704700BF000001200348D0F8B0300BB1FC
:109E2000A0301847704700BF000001200348D0F859
:109E3000D4300BB1C4301847704700BF0000012078
:109E40000348D0F8F8300BB1E8301847704700BF2E
:109E5000000001200348D0F81C3113B100F58670D2
:109E600018477047000001200348D0F8403113B173
:109E700000F5987018477047000001200348D0F89B
:109E8000643113B100F5AA70184770470000012033
:109E90000348D0F8883113B100F5BC7018477047FB
:109EA000000001200348D0F8AC3113B100F5CE70AA
:109EB00018477047000001200348D0F8D03113B193
:109EC00000F5E07018477047000001200348D0F803
:109ED000F43113B100F5F27018477047000001200B
:109EE0000348D0F8183213B100F5027018477047D4
:109EF000000001200348D0F83C3213B100F50B708C
:109F000018477047000001200348D0F8603213B1B1
:109F100000F5147018477047000001200348D0F87E
:109F2000843213B100F51D701847704700000120FE
:109F30000348D0F8A83213B100F5267018477047CF
:109F40000000012001380D4B0D4A00EBC000116BE1
:109F500003EB800310B4DB6F83B00A4CA34214BF41
:109F60004FF480034FF4001319431163126B134035
:109F70000193019B03B05DF8044B70470000012082
:109F800000380240006002400138F8B500EBC00024
:109F9000114C1D46114B04EB800417460E46E06F32
:109FA000984214BF9620952048F070FD94F99100D6
:109FB000B909C4F88C60C4F8945048F0C5FC94F911
:109FC0009130002B07DB03F01F0001225B090449DD
:109FD000824041F82320F8BD0000012000600240CB
:109FE00000E100E0800AA0F58010522808D8054B57
:109FF000034493F8F4330D2B02D8034AD05670472C
:10A0000000207047808B0508980F06080120FEF796
:10A01000F1BE00BF0220FEF7EDBE00BF0420FEF738
:10A02000E9BE00BF0820FEF7E5BE00BF1020FEF726
:10A03000E1BE00BF4FF47870FEF7DCBE4FF47C4009
:10A04000FEF7D8BE30B1036882881B691A4214BF7C
:10A0500001200020704700BF2DE9F04F0E4683B06D
:10A0600004461546002800F0C7800268644B13447C
:10A070009B0A644AC6F34119134493F85C0748F0FD
:10A0800005FDC6F38103B4F804E006F0030124687B
:10A0900001939EFAAEF0B0FA80F001F1FF383EFA7B
:10A0A00000F367D001220327009603E001303EFA57
:10A0B00000F35ED002FA00F313EA0E03F6D0D4F8F0
:10A0C00000C093FAA3FBBBFA8BFB93FAA3FABAFA8C
:10A0D0008AFA4FEA4B0BB8F1010F4FEA4A0A07FA26
:10A0E0000BFB01FA0AFA2CEA0B0C4CEA0A0CC4F836
:10A0F00000C04ED9D4F80CC093FAA3FBBBFA8BFB7B
:10A1000093FAA3FABAFA8AFA4FEA4B0B02294FEAFA
:10A110004A0A07FA0BFB09FA0AFA2CEA0B0C4CEA7A
:10A120000A0CC4F80CC0C1D193FAA3FABAFA8AFA9D
:10A130004FEA132CBAF1070F45DCD4F820C093FA8C
:10A14000A3FABAFA8AFA93FAA3F34FF00F0BB3FA11
:10A1500083F34FEA8A0A01309B000BFA0AFA05FAE8
:10A1600003F32CEA0A0C4CEA030323623EFA00F3E1
:10A17000A0D1009EB8F1010F08D86268C6F30013A1
:10A1800022EA0E020EFB03F31343636003B0BDE843
:10A19000F08FD4F808C093FAA3FBBBFA8BFB93FAB9
:10A1A000A3FABAFA8AFA4FEA4B0B019E4FEA4A0A1F
:10A1B00007FA0BFB06FA0AFA2CEA0B0C4CEA0A0C1B
:10A1C000C4F808C096E7D4F824A09CFAACFBBBFA0C
:10A1D0008BFB9CFAACF34FF00F0CB3FA83F34FEA0E
:10A1E0008B0B9B000CFA0BFC05FA03F32AEA0C0A12
:10A1F0004AEA0303636259E74FF0FF3339E700BFD0
:10A200000000FEBF808B050800B125E770472DE9EF
:10A21000F84FBB4F6023064603FB0073D3F8EC47AF
:10A22000D3F8F487D3F8F857002C00F05D81B8F12B
:10A23000000F04D098F90630002B40F0558125B16D
:10A2400095F90630002B40F04F81731CDBB2B8F15A
:10A25000000F04D0152288F8073088F8062015B1C1
:10A260001622EB71AA714FF0600A207E48F00EFCB6
:10A2700029460AFB06FA40464CF044F8404607EBF4
:10A280000A09042240F2145899F8FC37002B0CBF3D
:10A290004FF01E0B4FF03E0B5946FFF7B5FF284617
:10A2A000984D042259465544FFF7AEFF4C22002139
:10A2B00028464EF0A9F9D9F8EC379FED937AB0EE25
:10A2C000084A5B68F7EE003AB9F8FEA74FF0000CB9
:10A2D000C9F800388D4B9FED8E5A9A688D4BC2F3AA
:10A2E0008222134493F86427D7F82C33D34007EE27
:10A2F000903AF8EE677AC7EE275A07EE90AA9FEDDC
:10A30000867AF8EEE77AC7EE274ADFED847AB0EE78
:10A31000007AE5EE877AA5EE875A25EE844A37EE75
:10A32000856A74EEE72ABAF5C87F0CF1010ED5BF35
:10A330004FF4967278226423322307EE90EAD8BF56
:10A340004FF416791344A2F13202F8EEE76AC8BF5F
:10A350004FF4827907EE903AD4BF41464FF4FA7138
:10A3600066EEA56AB8EEE77AC7EE267A07EE102AFF
:10A3700001EB0902B8EEC77A37EE447A77EEE37A5A
:10A38000FCEEE77A17EE903AC7EE267AFCEEE77A13
:10A3900017EE900A07EE909AB8EEE73A07EE902A89
:10A3A000F8EEE77A23EE243A83EE277A37EE453A41
:10A3B00032EEC77AC3EE267A77EEE37AFCEEE77ADE
:10A3C00017EE901AC7EE267A77EEE37AFCEEE77A7C
:10A3D00017EE902A02F1020909EB010BB0EE467A62
:10A3E00007EE90BAF8EE677AA6EEA77AF4EEC74ABF
:10A3F000F1EE10FA7CDC43EA00095FFA89F9B9F161
:10A400000F0F77D841EA02091FFA89F9B9F1FF0F56
:10A4100070D81B05000403F07F6392B200F47F0044
:10A4200003433F4843EA0C7300EA01210B43134303
:10A430006022284602FB06760027C6F8043801236E
:10A44000C6F80878C6F80C38C6F81078C6F814783C
:10A45000C6F81C78C6F820784AF064FF96F84138B0
:10A46000202BD9B21AD196F84038012B16D02423CC
:10A4700086F84138D6F800381A6822F001021A60CE
:10A480001A6822F480521A601A681A601A6842F038
:10A4900001021A6086F8411886F84078002194F984
:10A4A0001A0048F051FA94F91A20A37E002A08DB1A
:10A4B0005909012203F01F0302FA03F3194A42F873
:10A4C0002130002194F9190048F03EFA94F919203E
:10A4D000637E002A08DB5909012203F01F0302FAF8
:10A4E00003F3104A42F82130BDE8F88FF4461AE72A
:10A4F000013171E7BEF10F0FF8D1002398E700BFDB
:10A500009019012090210120286B6E4E00380240E6
:10A5100000001643808B0508002474490000704237
:10A5200000FFFF0000E100E008B1002294E5704761
:10A5300070B50E4C94F8F865AEB104F5876400254B
:10A5400003E001352034B5420DD0237F002BF8D035
:10A55000E06800220028F4D00135217DFFF77CFD62
:10A560002034B542F1D1012070BD00BFA801002008
:10A5700070B590F8B2311C09013C052C0FD81A4E69
:10A58000054603F00F0306EB4402B2F86C0740FAED
:10A5900003F2D20703D595F8B521012A01D0012095
:10A5A00070BD9A402644013A10404EF00DF996F8DD
:10A5B00078370E4A034402EBC30452F83320A388D1
:10A5C00010691840ECD0002395F8B32102212046F1
:10A5D00085F8B531FFF740FDD5F82021136843F029
:10A5E00008031360DBE700BF808B05083C230120D4
:10A5F000014B53F82000704750280040014B43F8AE
:10A600002010704750280040204B2148196C214AE7
:10A6100041F0805130B482B01964196CFF2401F00C
:10A62000805101910199016841F480710160CA2053
:10A63000196C41F480611964196C01F48061009116
:10A640005321009D5462506251625B6FDB0013D452
:10A65000114B00221149C3F85428C3F85828C3F8F5
:10A660005C28C3F86028C3F86428C3F86828C3F8D6
:10A67000501802B030BC7047A2F50062074BD2F808
:10A6800050289A42E4D102B030BC704700380240F2
:10A690000070004000280040002000403166654204
:10A6A0002DE9F84FD0F894700446524B00F164063F
:10A6B000FDB227F0FF09826800F1180A103D4846F4
:10A6C000D2F80080A3FB05352D0929464AF020F970
:10A6D000626D0023B2F5807F84F858307ED00DD8AB
:10A6E000102A00F083805CD8012A45D0042A16BFC6
:10A6F0006FF400616FF008013C230EE0B2F5805F5B
:10A7000070D0B2F5803F3AD0B2F5806F15BF6FF4CC
:10A7100000616FF008013C230423324608F118065B
:10A72000404656F803C001EA0C01F150D4F854B089
:10A73000594649F0F9FEBBF5807F2DD023D8BBF1F7
:10A74000100F3ED036D8BBF1010F02D0BBF1040F81
:10A7500033D14FF0080C336852462946484643EA45
:10A760000C033360402323624AF08AF83B6843F0CD
:10A7700010033B60BDE8F88F6FF00801CDE76FF084
:10A7800008013C23C9E7BBF5805F22D0BBF5803FC1
:10A790001AD0BBF5806F10D108F11C064FF0080CE1
:10A7A000D9E7402A15BF6FF400616FF008013C2320
:10A7B0000023B2E7BBF1400FCBD03C364FF4006C26
:10A7C000C9E74FF4006CC6E708F154064FF0080CD7
:10A7D000C1E708F11C064FF4006CBCE76FF00801FC
:10A7E00004239AE76FF40061042396E76FF4006195
:10A7F00093E700BFABAAAAAAD0F8AC312DE9F04F7D
:10A8000093F9298083B005790446B8F1000F93F8D5
:10A81000299005F00205C0F297814FEA5912C64B04
:10A8200009F01F0153F8226003EB8203CE4006F0CB
:10A830000106002D40F0598101228A40C3F8802092
:10A84000BFF34F8FBFF36F8FD4F8A011086820F4C7
:10A85000F8700860886820F001008860C3F88021E3
:10A86000BFF34F8FBFF36F8F04F59077D4F820A11B
:10A870002423A268C4F89431DAF8003023F00103ED
:10A88000CAF800300023CAF80030CAF80430CAF809
:10A890000830C4F89C3184F89031C4F89431C4F87D
:10A8A0004031C4F89831C4F82421C4E94D336379A8
:10A8B0009A0203F0010102F48052C4F828211A031D
:10A8C00002F40052C4F82C211A0202F48062C4F887
:10A8D0003021227912F0010B00F0F2800420C4F83C
:10A8E000340115B10C20C4F83401002940F0038173
:10A8F00094F8B4214AB1D4F8442142F00802C4F8D3
:10A9000044214FF40042C4F8542113F0080FD4F846
:10A9100094314FF024033846C4F89431DAF800300B
:10A9200023F00103CAF8003000F0268143F0AAFAB0
:10A9300001281FD0D4F84431002B40F04781DAF8C9
:10A94000043023F49043CAF80430DAF8083023F0D6
:10A950002203CAF80830DAF8083043F00803CAF8CE
:10A9600008303846DAF8003043F00103CAF8003006
:10A970004AF0F8F8BBF1000F64D0D4F8FCA0BAF1AB
:10A98000000F00F0C68000234FF4807C04F13C0BE4
:10A99000C4F83CA0C4E91133C4E91433C4E9183342
:10A9A000C4E91A33D4F80431584623644FF4806361
:10A9B000E3644FF48033C4E916C34BF0B7F858464C
:10A9C00042F048FCD4F89831C4F88CB1202B67676A
:10A9D000019333D1E368626999B27AB3B1FA81F035
:10A9E0004009009051B394F89001012826D0A4F8B2
:10A9F0007811584600999BB2D4F820B1C4F89C1144
:10AA0000C4F88C102221C4F87421C4F898114B4961
:10AA1000A1674B49E1674B49C4F888100BF1240149
:10AA200042F0B2FC002800F0D98010230098C4F84E
:10AA30009C31019B84F89001C4F89431DAF8043019
:10AA4000C4F81431A5B3D4F800513DB3002304F188
:10AA50009C0AC4F89C50C4F8A8305046C4F8B830DA
:10AA6000C4E92C33C4E93033C4E93233D4F80831B3
:10AA7000C4F8A0304023C4F8A4304FF48063C4F875
:10AA8000AC304FF48033C4F8BC304BF04FF8504634
:10AA900042F0E0FB002800F09380FEE7D4F8A031FC
:10AAA0001A6842F080021A601A6842F040021A6086
:10AAB000B8F1000F01DB002E71D103B0BDE8F08FBB
:10AAC00015B10820C4F8340100293FF411AF9207F2
:10AAD0007FF50EAFD4F8442142F00102C4F84421BE
:10AAE0004FF40032C4F8482102E790F8B251003D1B
:10AAF00018BF0125A0E6D4F84411920741F00201E5
:10AB0000C4F844114FF48031C4F84C117FF5F0AE15
:10AB1000E0E7D4F8A0311A6842F480721A609A68AB
:10AB200042F001029A601A6842F020021A601A6824
:10AB300042F010021A6085E700E100E089B50408E0
:10AB4000B9B50408BDB50408D0F8A03125B190F816
:10AB5000B251003D18BF01251A6822F4F8721A603C
:10AB60009A6822F001029A60BFF34F8FBFF36F8F94
:10AB7000002604F5907779E643F084F901283FF444
:10AB8000F9AED4F844312BBBDAF8043023F4904307
:10AB9000CAF80430DAF8083023F02A03DFE64FEA77
:10ABA0005911194A09F01F09012302EB810003FA28
:10ABB00009F3C0F8803142F8213003B0BDE8F08FCE
:10ABC000C4F888A1C4F8D470686071E7384643F0CF
:10ABD000CDFAB4E6384643F0C9FAD5E784F89001D7
:10ABE000DBF8003043F48073CBF80030DBF808303A
:10ABF00043F00103CBF80830DBF8083043F04003A2
:10AC0000CBF808301AE700BF00E100E038B50409CE
:10AC1000013C052C1AD80F4D00F00F0305EB440240
:10AC2000B2F86C0740FA03F212F0010210D00122D0
:10AC3000254402FA03F3013B18404DF0C5FD95F899
:10AC40007837054A034402EBC30038BD002038BD05
:10AC5000104638BD808B05083C23012070B586B0B6
:10AC60000024054600F5887E0DF1040CC0F80C4167
:10AC700044F23B360594C0E93F44C0E94144CDE984
:10AC80000144CDE90344BCE80F00AEE80F00CEF864
:10AC9000004095F82901A5F8546108B906B070BDC7
:10ACA000FFF7B4FF2946064698B126232246C38003
:10ACB0000C4B41F80C3F4AF0A7FCB2880A494FF010
:10ACC0000043B2FA82F20868D34003430B6006B037
:10ACD00070BD044B024641F80C3F06B0BDE8704021
:10ACE0004AF092BCD1870008003C01402DE9F84FA2
:10ACF0006D4EC0EB001306EBC303D3F8AC4C002C35
:10AD000000F08A8093F81C8D05460701404647F005
:10AD1000BDFE01224FEA581308F01F08013B02FA5A
:10AD200008F2032B08D8DFE803F0ADB302B95F499E
:10AD30000B6A23EA02030B627B1B05F1010B06EB96
:10AD4000C3035FFA8BFB93F8B00CFFF75FFF8046FD
:10AD500018B1122380F807B083717B1B06EBC30385
:10AD600093F8B10CFFF752FF824618B1132380F815
:10AD700007B083717B1B06EBC30393F8B20CFFF79C
:10AD800045FF814618B1142380F807B083717F1BFB
:10AD900050462E2106EBC70696F8B42CFFF734FA7E
:10ADA00096F8B52C48460E21FFF72EFA96F8B32CEC
:10ADB0002E214046FFF728FA23683D4A23F040033E
:10ADC000944223602AD03B4B9C4231D103F500339F
:10ADD0001A6A42F480421A621A6A22F480421A62A3
:10ADE000636843F48053636023685B060CD4206877
:10ADF00040F217323049314B01400A432260626809
:10AE0000134043F4E0636360E36923F40063E361A8
:10AE1000236843F040032360BDE8F88F234B5A6A50
:10AE200042F480525A625A6A22F480525A62D7E738
:10AE3000234B9C421BD0234B9C420DD0224B9C4267
:10AE4000CED103F568435A6A42F480125A625A6AB4
:10AE500022F480125A62C3E703F582335A6A42F43D
:10AE600000525A625A6A22F400525A62B8E703F555
:10AE7000FE331A6A42F400421A621A6A22F400424D
:10AE80001A62ADE709494B6923EA02034B6153E7B4
:10AE900006494B6A23EA02034B624DE703490B69FB
:10AEA00023EA02030B6147E79019012000380240B2
:10AEB00000300140003800404000FFFFFBF0FFFF82
:10AEC000003C0040003401400050014008B51D2006
:10AED000FFF79CFE10B190F9063053B11E20FFF72A
:10AEE00095FE10B190F9063003B108BD5523C3801B
:10AEF00008BD5523C380F1E72DE9F04F002391B041
:10AF0000A24E0293A24BA6F67C0ADFF88C9293F82D
:10AF10009EEEA04D0EF1FF37CDF80CE0FBB2019391
:10AF2000DFF88CB2DBF80070BB0AA3F58013522B5C
:10AF300000F2CF80534493F8F4330D2B00F2C98014
:10AF400015F90380039B012B00F01681039B022B54
:10AF500002D1B8F1080F3AD10024214640460FF043
:10AF60009BF90FF021FA90F900C0BCF1000F18BF57
:10AF7000BCF1540F14BF4FF0010C4FF0000C40F027
:10AF8000F1800434A4B2102CE7D1029B002B00F016
:10AF9000AB80814A0CE0534493F8F4330D2B0ED868
:10AFA000EB5643450ED002F586724A4500F0988074
:10AFB00091680B689B0AA3F58013522BEBD90023F1
:10AFC0004345F0D14B799BF805109942EBD10BF139
:10AFD0001C0B5E45A6D1029B09F586790133042B33
:10AFE00002939DD16D4A4FF0010B92F8F83502F5AE
:10AFF000876A01330493049B5B4567D0644BDAF89E
:10B000000C7093F8B22E9AF810300193002F5DD097
:10B0100062493B684D686248B988002D1844039323
:10B0200002914FEA902040F3C8805B49002405E07C
:10B03000013401F58671AC4200F0BC800B6883429C
:10B04000F6D1554B4FF48672029D02FB0434019BEE
:10B050000322CAF80C708AF81030029BCAF8184014
:10B06000B3FA83F6C6F11F035800CAF80430BA7168
:10B0700087F807B002FA00F7A16C0122D4F854C097
:10B08000394302FA00F002FA03F3A164216D01438F
:10B09000D4F8AC00216541490F7899B2002F00F037
:10B0A000708143EA0C036365039B9D61FDF776F8AD
:10B0B0000BF1010B2046FDF745F80AF1200A40F29A
:10B0C0000113BBF1090F2AF8043C94D111B0BDE87B
:10B0D000F08F019B012B7FF67AAF4FF000083BE722
:10B0E000BCF1000F7FF473AF5846FCF7F1FF9BF8FB
:10B0F00005E0C3B2022B00F2958300F1010C294A4E
:10B100000CEB4C0C02F57D704FEA8C0C03E02C32FA
:10B11000904200F0878313689F42F8D113797345FA
:10B12000F5D152F80C30002BF1D01F4800214268B5
:10B130009A4207D00131243010293FF448AF4268C9
:10B140009A42F7D14B1C194ADBB2013B03EBC30314
:10B1500002EB830393F99830002B7FF438AFC9F8E2
:10B1600008B038E7029B002B7FF413AF0BF11C0BE8
:10B170005E457FF4D7AE2EE7B8F1010F3FF4ECAE99
:10B180000BF11C0B5E457FF4CDAE24E7FC93050864
:10B1900090190120980F0608B0010020A801002096
:10B1A0000000FEBF808B05087C000120000001200C
:10B1B00000930508042C00F0F2804FF48671B54B23
:10B1C00001FB053319690691002900F0FB829860A4
:10B1D000013054210792C4B2AE4A83F8101183F8AB
:10B1E00011416B1C5360069B18461E685B790593E2
:10B1F000FCF76EFFC3B2022B00F2148300F1010EC4
:10B20000A5494FF0000C079A0EEB4E0EDDF8149096
:10B210004FEA8E0E06E00CF1010C2C31BCF1170F39
:10B2200000F000830B689E42F5D10B794B45F2D1BB
:10B2300051F80E30002BEED098462C2300EB400046
:10B24000954903FB0CF3DFF8809203EB80039148F0
:10B250000B4419694FF4867303FB05034846C3E9A1
:10B26000078143680021434507D00131243010296C
:10B270003FF42CAF43684345F7D14B1C8749DBB201
:10B28000013B03EBC30301EB830393F998100029FF
:10B290007FF41CAF4FF48671814883F899404FF0DA
:10B2A0008C0C01FB05F17B4C062A07914FEAA101AA
:10B2B00000FB01F17B4800F54C7E07982044039C7D
:10B2C000C0F800C10CFB01FC01EB4101C46001EBC3
:10B2D0000111744C0EEB4C0E04EB81044FF0540141
:10B2E000C0F8FCE083F898104FF033030799C0F8DA
:10B2F000B8306D4BC0F8B44003EB01046B4BD3F88E
:10B300002C1300F04D82072A694B6A486A4A18BF1D
:10B310001A466A4B18BF03465E48B1FBF3F3B1FB14
:10B32000F2F2013B4FF48671013A01FB05019BB239
:10B33000A1F8BC20A1F874302366079B03F15801E3
:10B3400000F10803304619440023A4F8583063661E
:10B35000E36549F031FA3368059A43F080033360BE
:10B360000C2A23D8DFE812F0C301220022002200B9
:10B37000A101220022002200E3012200220022007B
:10B380007D01C6F12F062D0402FA06F33A4643EA80
:10B390000C036365039B9D61FCF700FF88E60323B4
:10B3A000424A82F8B33E11B0BDE8F08F394A4FF4FB
:10B3B0008673304603FB05230222596933680391E3
:10B3C00023F00103336000230A930D930F9360234E
:10B3D00008934FF480730E93012309930A23CDE958
:10B3E0000B3208AA49F0A0F80399B1F5807F00F06C
:10B3F000FD8100F2D881102900F0028200F2E9817B
:10B40000012900F0FA81042915BF4FF400630823D5
:10B410003C20002006F118010A5813430B50069BEC
:10B420001879002840F0AB81336843F001033360A2
:10B430000023D9F804200133904500F09B81102BA4
:10B4400009F12409F5D14FF0FF334FF00008134AFA
:10B4500003EBC30302EB8303D86F194B984214BF6D
:10B460009620952047F012FB059B0C2B00F27F8164
:10B47000094A02EB4303B3F87CC84FF48673054ACC
:10B48000104803FB052300F26471A3F818C00023E1
:10B4900023E000BFA8010020808B050800000120E8
:10B4A0006B4CA40774120020B001002090190120F9
:10B4B00044950800D0DD06001055220040771B009F
:10B4C00000600240A01200207C000120964200F0A3
:10B4D00088810133042B00F0A88151F83320002A21
:10B4E000F4D1D0F884270132C0F8842700EBC300E0
:10B4F000DB00C0F8646719444046234690228E88DA
:10B500004CEA060C0026A1F804C0BF49FEF73CFD3A
:10B510004FF48673BD4A40214FF4403CBC4803FBC6
:10B5200005280423D8F81C502A6842F010022A602B
:10B530002A6842F014022A60C4F8A860C4E91F66B1
:10B54000C4E92866D8F82020A1674FF48061C4F8C8
:10B5500098C04FF4804CC4F88410E9B2C4F89C3011
:10B56000C4F8942010390392D8F8B820A0FB010148
:10B5700025F0FF00C4F890204FF48052D8F80C90CA
:10B58000D940C4F88820079B09F1180209F1100975
:10B59000226703F170029F4B1A44D8F8B430C4F804
:10B5A0008CC06367CDE9050149F06AF9D5F800E080
:10B5B000079BC4F820E0D5F814E003F1B802954BDE
:10B5C000C4F824E0D5F804E01A44039BC4F828E04A
:10B5D000D5F808E0C4F82CE0D5F80CE0C4F8DC306D
:10B5E0000423C4F8C860C4F8E4304FF48063C4F89E
:10B5F000F060C4F8CC304FF40033C4F830E0C4F845
:10B60000E030C4E93066C4E93A664FF40066D8F821
:10B610000031C4F8B890C4F8D0604FF48046C4F844
:10B62000D830D8F8FC30C4F8D460C4F8BC30DDE9B8
:10B63000050149F025F92B6863636B69A3636B68A7
:10B64000E363AB682364EB6863642B6843F0100327
:10B650002B602B6843F014032B603B68BD88039379
:10B66000F5E433684FF4867268494FF0020E23F018
:10B670000103304602FB05124FF48051516108AAC4
:10B68000336000230A930D930F93602308934FF4C4
:10B6900080730E93012309930A23CDE90B3E48F0F2
:10B6A00043FF4FF400630420B4E633684FF486721E
:10B6B0005649022023F0010302FB051210215161BB
:10B6C00008AA336000230A930D930F936023089315
:10B6D0004FF480730E93012309930A23CDE90B30B5
:10B6E000304648F021FF00204FF4006392E63368B3
:10B6F0004FF486724549304623F0010302FB0512E0
:10B700000121516102223360002309910A930D93B4
:10B710000F93602308934FF480730E930A23CDE9AF
:10B720000B3208AA48F000FF0020082372E63368B5
:10B730004FF486723549022023F0010302FB051203
:10B740004FF4807151616022336000230E910A939F
:10B750000D930F930123CDE908230A2308AACDE90D
:10B760000B30304648F0E0FE0823042052E64FF04C
:10B77000000C82E65FFA83F808F1FF3367E6FFF713
:10B7800045FA039038B10699CA790221FEF764FCA4
:10B790005423039AD380736C43F40043736443E6E9
:10B7A0001D4A1E4BB8E5B1F5805F22D0B1F5803F50
:10B7B00019D0B1F5806F15BF4FF4006308233C200A
:10B7C000042027E60223164A82F8B33E11B0BDE8F2
:10B7D000F08F402915BF4FF4006308233C20002060
:10B7E00018E6DB0087E608233C2013E60823042044
:10B7F00010E64FF4006304200CE60020082309E65D
:10B8000000204FF4006305E6E9810008A80100204C
:10B81000ABAAAAAAB0010020882A1100A0BB0D0083
:10B820009019012000235B68FFDE00239B88FFDE68
:10B830002DE9F04F9A4C8BB094F8B47E1FB90020DC
:10B840000BB0BDE8F08F00222F2138460EF002FE2B
:10B8500006460028F3D090F80590D0F800A0A4F890
:10B860001894FEF78FFA0028E9D0D0E9015B002D8B
:10B87000E5D0DFF864820023424601E0102BDED0E1
:10B880005168013324328D42F8D1DBB2013B03EB26
:10B89000C302844B03EB820292F998100029CED1A7
:10B8A0002F20C4F8D8A3A2F89800D4F82C037E4A1D
:10B8B000904280F0D880000AC4F8DC137B49002253
:10B8C000A1FB00017A48C4F8E823C4F8E0230A0980
:10B8D0000909A0FB0202C4F8E4135208A4F8B82E28
:10B8E0005200A4F8B62E94F8152402F0FF01002AA5
:10B8F00000F0C580022250466E4984F8152442F0BB
:10B90000B9F90122384684F81524FFF77FF9654B11
:10B91000C4F8BC0E30B12F21C1804E21F279FEF760
:10B920009BFB604B644A0021C4F8C4BEB9F10C0F04
:10B93000C4F8CC1EC4F8DC1EC4F8E41EC4F8EC1E27
:10B94000C4F8F01E106BC4F8C05E40F40010106321
:10B95000106B00F4001000900098106B40F4800011
:10B960001063126B02F480020192019A4FF04002C0
:10B97000C4F8C82E4FF48062C4F8D02E4FF4805221
:10B98000C4F8D42E4FF48042C4F8D82E4FF40032BD
:10B99000C4F8E02E4FF00302C4F8E82E72D8474AEC
:10B9A00002EB4902B2F89878BA4608374448414653
:10B9B000002204EB870CCCF8D803A0F6E820C4F8EA
:10B9C000F80E486801322431854260D0102AF8D13F
:10B9D0004FF0FF3202EBC20203EB8203D86F394B08
:10B9E000984214BF9620952047F050F80023D8F8CD
:10B9F0000420013308F12408954246D0102BF6D1DB
:10BA0000002004EB8704534660222F49FEF7BCFA5E
:10BA1000D4F8D80341F01EFC00287FF410AFB479AD
:10BA200000276026089063004A4602A9274803F0D1
:10BA300002030493E300CDE9026703F00803002644
:10BA400000270593CDE9066746F0C6FC00287FF481
:10BA5000F6AEA30749461D481CD542F0EFF9B0FAEF
:10BA600080F04009ECE61A4A1A490244A1FB02217F
:10BA7000890D013989B24A1CB0FBF2F01BE784F84A
:10BA8000141437E78A460F468FE7D8B2B9E7D2B227
:10BA9000013A9FE742F0BEF8B0FA80F04009CFE6E5
:10BAA0009019012000000120006CDC02598B4F012D
:10BAB000ABAAAAAA6C1D012000380240808B0508A1
:10BAC0005028012000600240FD8F0008681D012001
:10BAD00000366E01819F5E167C000120F8B50E4C89
:10BAE00094F8F8759FB104F5C064C7F109070925FA
:10BAF000013D0ED0A6683079FFF788F8217DF279F4
:10BB000008B1FEF7A9FAAF4204F1A004F0D1012078
:10BB1000F8BDAB68FFDE00BFA80100202DE9F041B1
:10BB20000446EFF31185502383F3128803799B07B2
:10BB300002D590F8B2313BB9012384F8A431EDB2BB
:10BB400085F31188BDE8F081D0F800311B6813F04F
:10BB50000103F4D1D0F89421D0F898110A4302F0EF
:10BB60002102212AEBD0D0E909129142E4D090B20F
:10BB70003ED8194623691B1A9BB2D4F89461A1627E
:10BB80000021202E84F8A411D9D1A1698918D6D01A
:10BB9000B3FA83F77F09002BD1D094F89021012AC2
:10BBA000CDD00122D4F88801A4F8723184F8902114
:10BBB0002122C4F89C71D4F82081C4F86C11A4F837
:10BBC0007031C4F89421B0B1114A0765C263114ABB
:10BBD0000264114AC26408F1280241F0D5FB50B159
:10BBE000102384F89071C4F89C31C4F89461A6E7DE
:10BBF000081A83B2C1E700234022C8F8202084F845
:10BC00009031D8F8083043F08003C8F8083096E740
:10BC100061B5040885B50408BDB504082DE9F843ED
:10BC20000379054613F0020604D090F8B261003E95
:10BC300018BF0126D5F820412768D4F8088017F0EE
:10BC4000200958D1FB0540F18880E369DA0701D566
:10BC50000123236218F0010F7BD0E3699B0701D514
:10BC600002232362E369580701D504232362E369B1
:10BC700019076BD4002E5FD07A0628D5E3695E06DB
:10BC800025D54023236295F8B561002E00F0908001
:10BC9000D5F80031002B68D02846FFF73FFF95F814
:10BCA000A431A3B195F8B5418CB995F8B201FEF76E
:10BCB000ADFFD5F820210121136823F0080313609C
:10BCC00085F8B51118B122462021FEF7C5F9D5F83F
:10BCD0000031002B49D0F9060BD5D5F82031DA69AF
:10BCE000D20606D56A6B12B19047D5F820311022E2
:10BCF0001A62BDE8F883E369980614D5606AEB6AB6
:10BD0000C0B2002B48D0296B9847D5F82041236852
:10BD100023F480732360A36823F00103A360A36965
:10BD200043F00803A361F9058FD418F0010F94D1F3
:10BD3000E36919079ED509E0236823F0C003236057
:10BD4000E3695B06C7D540232362C4E70823236267
:10BD500090E7B9F1000F8DD089E718F0010F89D075
:10BD6000E3699B077FF57EAF7AE73C06B3D5D5F84C
:10BD70002021D3691806AED5D5E909138B422AD004
:10BD8000A969C95C0133C9B291622A69B3FBF2F1B6
:10BD900002FB1133AB629EE7EB696A69D054EB6931
:10BDA000EA680133B3FBF2F102FB1133EB61ACE75C
:10BDB00095F8B201FEF72AFF236823F008032360F9
:10BDC000012385F8B53100283FF462AF32462021C7
:10BDD000FEF742F95CE7136823F0800313607AE70B
:10BDE000BFF34F8F0549064BCA6802F4E062134364
:10BDF000CB60BFF34F8F00BFFDE700BF00ED00E059
:10BE00000400FA0508B572B6FFF7EAFF70B582B014
:10BE1000FEF7FAFB0320FEF7EBFB01284ED0334C74
:10BE20000025334A0523C4F89850C4F89C50C4F840
:10BE3000A020C4F89430BFF34F8FBFF36F8F4FF63D
:10BE4000FF01E2682B4B0A402B4E13432B4AE36061
:10BE5000536FC6F8203F41F05FFC294B2949A3FBF3
:10BE60000023D4F8FC209B0C42F08072C4F8FC2024
:10BE7000C6F8243FD6F82C33234AA1FB03132349E9
:10BE80009B09C2F8B01F5560013B1168B3F1807F78
:10BE900041F00101116007D34FF0E022136943F034
:10BEA0000403136102B070BD4FF0E022F021536132
:10BEB000072384F8231095611361EDE70221032025
:10BEC000FEF79CFB0D4B12485A6C124942F480421B
:10BED0005A645B6C03F480430193019A02680B6817
:10BEE000026083F308884B689847FEE700ED00E0A6
:10BEF0001B0000060005FA059019012000380240D9
:10BF000083DE1B43D34D6210001000E055CEACC55C
:10BF1000003801400000F01F800AA0F58010522870
:10BF20001CD80F4B034493F8F4330D2B16D801396A
:10BF300010B40C4C04EB831CD4F82C438BB2DCF80B
:10BF40001C040CF58461CCF82834B4FBF2F2013AFD
:10BF50005DF8044BCCF8202441F08CBE704700BF44
:10BF6000808B05089019012070B50468A30AA3F519
:10BF70008013522B05D82D4E334493F8F4530D2DD6
:10BF800000D970BD2046FDF777F8294BA8010222A1
:10BF900003EB8515D5F81C1485F85924254A8D68BE
:10BFA0002A40062A06D0B2F5803F03D00A6842F044
:10BFB00001020A601A180121002382F859141E494F
:10BFC00051F8332094420AD001330E2BF8D10121CD
:10BFD000002046F0B9FC194B01221A6070BD06EB37
:10BFE000C306012196F9B94896F8B958204646F09B
:10BFF000ABFC002CC5DB05F01F0201216B090F4CC7
:10C0000001FA02F21B2D44F8232006D1192046F034
:10C010009BFC4FF00073236070BD2E2DB1D12C20FE
:10C0200046F092FC4FF48053636070BD808B05082E
:10C0300090190120070001003494050800E100E098
:10C0400003689B0AA3F58013522B52D8F0B5344CE9
:10C05000234493F8F4330D2B4AD844790225314810
:10C060004FEA831E24FA05FC00EB831605FA0CF553
:10C07000644603EB830CD6F81C6403EB4C0C0029DC
:10C080003BD0A444F4682C4300EB8C0569606A61E2
:10C09000F460EFF3118C502282F312882C2101FB03
:10C0A00003F2845802442CB3211D546203EB830233
:10C0B0001D4D03EB4202920015441032024452F827
:10C0C000044F0CB10C60211DAA42F8D100225FFA86
:10C0D0008CFC0A608CF311882C2202FB03035B6A40
:10C0E000ABB18644DEF81C24D36843F00103D3606F
:10C0F000F0BD704711462431D8E7F768644427EA59
:10C100000505F56000EB840569606A61C1E770446C
:10C11000D0F81C24D36823F00103D360F0BD00BF26
:10C12000808B050890190120B019012003689B0A33
:10C13000A3F58013522B00D970470F4A134493F88C
:10C14000F4330D2BF8D8022210B40C4C407904EBD8
:10C15000831C20FA02F3DCF81C0402FA03F3C26821
:10C1600029B922EA03035DF8044BC3607047134307
:10C170005DF8044BC3607047808B0508901901205F
:10C1800003689B0AA3F58013522B10D8084A134466
:10C1900093F8F4230D2A0AD8407902230549D840A0
:10C1A00001EB82128340D2F81C24DB4313617047F9
:10C1B000808B05089019012001490248FCF738BE20
:10C1C000901901200000014010B5064C0648214698
:10C1D000FCF72EFE04F5C6710448BDE81040FCF7DC
:10C1E00027BE00BF9019012000000140004401401B
:10C1F00002494FF08040FCF71BBE00BFBC19012074
:10C2000001490248FCF714BEE8190120000400406F
:10C2100001490248FCF70CBE141A01200008004036
:10C2200001490248FCF704BE401A0120000C0040FE
:10C23000F8B5164D164E2A69EB681A404FF00040CB
:10C24000B2FA82F3EAB120FA03F3012A6FEA030398
:10C2500002EA03012B610A46F2D1D6F804718FB1CC
:10C26000013F0023BFB2C6F80431D6F8004134B113
:10C2700023682046394698476468002CF8D100228C
:10C28000DCE7F8BDEF6ABFB2EFE700BF0010004087
:10C290009019012001490248FCF7CABDC41A0120C7
:10C2A0000004014010B5064C064804F59A71FCF7ED
:10C2B000BFFD04F504710448BDE81040FCF7B8BDAB
:10C2C0009019012000040140001C0040014902486F
:10C2D000FCF7AEBDF01A01200040014001490248C0
:10C2E000FCF7A6BD481B0120004801400149024857
:10C2F000FCF79EBD741B0120001800402DE9F041A1
:10C300004FF425728EB000215E484CF07DF95E4BF3
:10C310005E4D4FF000085A6C40F22227A5F6241615
:10C32000A5F1700442F001025A645A6C02F0010255
:10C330000092009A1A6C42F001021A641A6C02F020
:10C3400001020192019A1A6C42F002021A641A6CFC
:10C3500002F002020292029A1A6C42F004021A647B
:10C360001A6C02F004020392039A1A6C42F008025B
:10C370001A641A6C02F008020492049A1A6C42F0D1
:10C3800010021A641A6C02F010020592059A1A6CD7
:10C3900042F020021A641A6C02F020020692069AF9
:10C3A0005A6C42F002025A645A6C02F0020207927E
:10C3B000079A5A6C42F480325A645A6C02F4803202
:10C3C0000892089A5A6C42F400325A645A6C02F489
:10C3D00000320992099A5A6C42F480225A645A6CCB
:10C3E00002F480220A920A9A1A6C42F040021A64FD
:10C3F0001A6C02F040020B920B9A1A6C42F0800207
:10C400001A641A6C02F080020C920C9A1A6C42F4B4
:10C4100080721A641B6C03F480730D930D9B55F8A6
:10C420002810002354F83320914226D001330E2BDC
:10C43000F8D1002008F1070846F028FBB845EED1F6
:10C440004FF0000840F2222755F82810002354F836
:10C45000332091420CD001330E2BF8D1002008F18B
:10C46000070846F013FBB845EED10EB0BDE8F081E9
:10C4700006EBC30393F8B808F1E706EBC30393F8A0
:10C48000B808D7E79019012000380240A4940508A5
:10C49000800AA0F5801052280ED8084B034493F868
:10C4A000F4230D2A08D8064B03EB8213D3F81C247F
:10C4B000136843F001031360704700BF808B0508C9
:10C4C0009019012037B590F867380446032B2FD117
:10C4D0000023204D8DF807309DF8073094F8682828
:10C4E0009A4201D803B030BD9DF8073005EBC30375
:10C4F00093F82C3F8BB181F0010383B19DF8073095
:10C5000005EBC303D3F8280FFDF7C4FB9DF80730F4
:10C510000133DBB28DF80730DEE70B46EDE79DF81F
:10C52000073005EBC303D3F8280FFDF7B9FBEDE7A0
:10C53000D0E910039B7903F00103994204D003B0C2
:10C54000BDE83040FDF7A6BB03B0BDE83040FDF7C5
:10C55000A7BB00BF9019012038B5044600790D46ED
:10C5600050B1FEF753FB08B10323C380E27929469B
:10C57000BDE83840FDF748BE38BD10B5044622215D
:10C58000FFF7EAFF2046FFF7FBFD20460121BDE84B
:10C590001040CBE510B504460121FFF7DDFF002177
:10C5A0002046BDE81040C1E538B510F8133CA0F6B0
:10C5B0006C041BBB94F858388BBBD4E909239A420E
:10C5C0001CD05A1CA169A262CB5C21695B008A4223
:10C5D00028BF002243F40073A262A4F85C380A2347
:10C5E00084F85A38012384F8583894F86738012BB6
:10C5F00001D0042B02D1606CFFF7CCFF94F85438C3
:10C60000002B6DD194F855380133DBB2092B84F837
:10C61000553825D12046BDE83840FBF781BE94F956
:10C620005A586DB1B4F85C18013D20464B0801F032
:10C630000101A4F85C38FFF745FF84F85A58DDE79C
:10C64000D4E9092384F858589A42D7D194F8673826
:10C65000012B01D0042BD1D1606CFFF78EFFCDE709
:10C660000A2B3DD194F857382BB9B4F85E3843F013
:10C670000103A4F85E382379D9070AD5B4F85E0817
:10C68000820501D4C30718D4B4F864380133A4F880
:10C6900064380122002384F8542894F8572884F839
:10C6A0005538012A1CD16179606C84F8573801F043
:10C6B0000101BDE8384048F033BBE36AC0F34700EE
:10C6C00013B1216B9847E4E7E3696269D054E369E9
:10C6D000E2680133B3FBF2F102FB1133E361D8E707
:10C6E00038BD00BF2DE9F041A14CA4B0D4F85C38AE
:10C6F000022B00F030829F489F4AA049121A4BF04B
:10C700008DFE9F489F4AA049121A4BF087FED4F82D
:10C710005838012B00F2C08003EB43039B4A9C4E28
:10C7200002EB430032F8132041888388C6E9AF2129
:10C73000C6F8C432974C984D984BB2FBF1F2984929
:10C7400001FB02F20021C5F82C23D4F8882042F422
:10C750007002C4F888201A6842F001021A609960D9
:10C76000904A1868024090481A60C0F308078F4A40
:10C770005A601A6822F480221A60D96007B1FEE775
:10C780008B49A0604FF6FF000A688A4B42F40072A2
:10C790000A60E26802401343E36046F087FCBFF39F
:10C7A0004F8FBFF36F8FC4F85072BFF34F8FBFF33B
:10C7B0006F8F636943F400336361BFF34F8FBFF33F
:10C7C0006F8FC4F88470BFF34F8FD4F8803043F676
:10C7D000E07CC3F3C90EC3F34E33580100EA0C01E9
:10C7E000734641EA8372013B5F1CC4F86022F8D1B2
:10C7F000203810F1200FF1D1BFF34F8F636943F45C
:10C8000080336361BFF34F8FBFF36F8F6849634B12
:10C810000A6842F480720A60196C674A41F08051DC
:10C820001964196C01F0805102910299116841F468
:10C83000404111601268D6F8BC4202F440420192B5
:10C84000019A9A6802F00C02042AD6E9B07100F04D
:10C850008B809A6802F00C02082A00F081804F4A0F
:10C86000136843F480331360D5F8680F04E0D5F8FB
:10C87000683F1B1A642B72D813689B03F7D5474A8D
:10C88000936803F00C03082B69D0136823F08073BE
:10C890001360D5F8680F08E03D4ED6E9AF2149E7AF
:10C8A000D5F8683F1B1A022B59D813689E01F7D49C
:10C8B0000B06790843EA8413013943EA01433F49EF
:10C8C00019435160136843F080731360334AD5F8FD
:10C8D000681F04E0D5F8683F5B1A022B3FD8136845
:10C8E0009801F7D5136C43F080531364136C324AEC
:10C8F00003F080530393039B136843F48033136066
:10C90000D5F8681F05E0D5F8683F5B1AB3F57A7F64
:10C910002DD85368DB03F6D51368274943F4003359
:10C920001360D5F8682F05E0D5F8683F9B1AB3F57A
:10C930007A7F1CD84B689E03F6D54FF400124FF057
:10C94000006304A804924FF4C07221930723CDE939
:10C95000082303230A9340F005FF88B3FEE7FEE7B0
:10C960005B685A027FF57BAF0C4B1B6887E7FEE7DD
:10C970000020004000000000683C00004CA90608B0
:10C9800000000020A80100203F0B07082C9D05088F
:10C990000000012000ED00E0901901200038024065
:10C9A00040420F00FFFFF6FE000000081030002498
:10C9B000003C02400003FA050070004010004020D7
:10C9C000684A136803F00F03062B0AD8136823F094
:10C9D0000F0343F007031360136803F00F03072BE3
:10C9E00069D1614B9A6842F4E0529A609A6842F4C5
:10C9F00060429A609A6822F0F0029A601A68900188
:10CA000059D59A6841F2883022F0030242F00202BE
:10CA10009A60D5F8681F04E0D5F8682F521A824250
:10CA200049D89A6802F00C02082AF5D14D4A1368D9
:10CA300019070AD5136823F00F0343F007031360A7
:10CA4000136803F00F03072B35D1DFF81C81474E25
:10CA5000D8F8083023F4E05343F4A053C8F8083062
:10CA6000D8F8083023F4604343F40043C8F8083092
:10CA700040F052FED8F80830C3F30313334493F860
:10CA8000C03020FA03F3C5F82C3346F00FFB002327
:10CA900004A8CDE91333CDE91533CDE91733CDE93A
:10CAA0001933CDE91B33CDE91D33314B049340F0ED
:10CAB00059FE08B1FEE7FEE702234FF0007204A81A
:10CAC000CDE90633D823CDE9042301230B9340F0AD
:10CAD00049FE00B1FEE7D8F88C3023F08073C8F827
:10CAE0008C30D8F88C3043F08073C8F88C30D8F88C
:10CAF000083003F00C03082B12D01E4B1E49B4FB68
:10CB0000F7F201FB02F218498968C1F303110E44E0
:10CB100096F8C010CB409A42C5F82C3318D0FEE7E7
:10CB2000D8F80430D8F80420124902F03F02D8F8AF
:10CB30000430B1FBF2F2C3F3881302FB03F30A4A99
:10CB40005268C2F3014201325200B3FBF2F3D5E75F
:10CB500024B0BDE8F08100210320FDF74FFDFFF771
:10CB60003FF900BF003C024000380240789C0508B5
:10CB7000C0FF03000024F40040420F0010B4EFF3A4
:10CB80001182102383F312880C4B4FF0E020002415
:10CB9000D2B2D3F8D4120131C3F8D4128169C3F8E8
:10CBA0006C1FC3F8704F016982F31188D3F8682FA6
:10CBB0005DF8044B0132C3F8682F704790190120CB
:10CBC00010B4EFF31181102383F312884FF0E022A9
:10CBD0009469136913F4803F0D4B03D00120C3F80F
:10CBE000700F9469D3F8D402C9B2D3F8702F81F3CF
:10CBF00011880244D3F8241F4FF47A7000FB01F32C
:10CC00001B1B5DF8044BB3FBF1F300FB02307047D4
:10CC100090190120134B5B68C3F3080303BBEFF3C8
:10CC20001183EBB9104B4FF0E02C10B4D3F8D422A1
:10CC3000DCF81800D3F8D4128A42F7D1D3F86C1F6D
:10CC40008842F3D8D3F8244F4FF47A7101FB04F3F0
:10CC50001B1AB3FBF4F35DF8044B01FB0230704781
:10CC6000AEE700BF00ED00E0901901202DE9F04F84
:10CC7000374C83B023781BB9012003B0BDE8F08F97
:10CC8000344F04F58764DFF8D0B04FF0000AD7F8CE
:10CC9000D4324FF6FF7894F8C0910BF53875ABF5A8
:10CCA000F166019314E0B0F5606F43D0A881B0EB5A
:10CCB0000801019A584618BF01210CF0C5FD0AF180
:10CCC000010A0BF15C0B20341435BAF1080F2AD09D
:10CCD000CA4528D0A0696268D0E93D014BF014FF35
:10CCE0004FF6FE7397F8752F984214D0542A04D14A
:10CCF000B7F8782F0132A7F8782FD6F8702A404578
:10CD000002F10102C6F8702ACDD1D6F86C2A0132A0
:10CD1000C6F86C2ACBE7542AD1D1B7F87A2F013262
:10CD2000A7F87A2FCBE70123012086F86C3B03B0EC
:10CD3000BDE8F08F97F8D42302EB420207EBC20262
:10CD4000524492F881230D2AB0D18022AA77AEE70F
:10CD5000A801002090190120281A002070B54BF07E
:10CD6000EFFE80B31A484568002D10DD002410F84E
:10CD7000086B16B1037F012B1FD04269013400F507
:10CD800086701368AC4243F001031360F1D1FFF7E2
:10CD900041FF104BD3F88447002C0DDD03F2647380
:10CDA00003EBC4041968083333F8042CC868A342A1
:10CDB00042EA0002CA60F5D170BD002380F8FC3061
:10CDC000FBF7C0F9D9E749F097FB0028CAD170BD3D
:10CDD000A8010020A01200202DE9F04F894C87B057
:10CDE00023781BB9012007B0BDE8F08F864BD3F83C
:10CDF000D4320493FFF70EFF94F8F8250192002A2D
:10CE000000F0F880814A04F5C0640027D2F8783B2E
:10CE100002F5F16B02F6682A2646A0EB030805949A
:10CE2000B8F1000F03DBF36D434500F3C98007EB56
:10CE30008703744A02EB431393F8583603F0FF0E4E
:10CE4000002B00F08780D6F89410B36870481A68F9
:10CE5000CBB221F0FF01103BA0FB03036D481B097F
:10CE6000C35C0B44B1895C68D368A4B223EA0103B4
:10CE7000C4F11604D360072C6CD9644A0121D2F89E
:10CE8000703A89460133C2F8703A0022D6F89C30D5
:10CE9000154618689C46CDE902E715E0142D1EDC06
:10CEA00017F1080E48BF07F1170E4FEA2E1705EBD2
:10CEB0002E1507F1FF3E013102FA07F709FA0EFEBF
:10CEC0008C424EEA07020AD307468C425CF8040FF4
:10CED000A0EB0707E2D8C5F115071525E9E7152DE1
:10CEE000DDE902E762D14C4CC2F38421C2F3441065
:10CEF00004EB810104EB8000D1F85011D0F850010F
:10CF0000090241EA001102F01F00C2F3C43204EB2F
:10CF1000800004EB8202D0F85001D2F85021014386
:10CF200041EA023282EA122181EA111101F00F0175
:10CF30000F293BD1C2F30F124FF6FF718A4235D051
:10CF4000B2F5606F40D0AAF80C207146049A58469A
:10CF50000CF07AFC30460137FDF7A2FB019BA036AE
:10CF60000BF15C0BBB420AF1140A7FF459AF019B31
:10CF70000121059C002203EB8303244804EB4313A7
:10CF800080F86C1BC0F8782BA268A03414F8901CB1
:10CF9000126854F84C0C11F0020F116A14BF41EAE8
:10CFA00080010143A3421162EED11BE71749D1F87A
:10CFB0006C2A0132C1F86C2AB7B14FF0000EC4E7F9
:10CFC000002007B0BDE8F08F0F4991F8D43303EB90
:10CFD000430301EBC3033B4493F881330D2BB2D1E0
:10CFE00080238AF81E30B0E7194658220B484BF0D0
:10CFF00015FAE2E7054B0122019983F86C2BC3F87F
:10D00000781BEFE6A801002090190120A012002053
:10D01000ABAAAAAAA80F0608789C0508B41D002090
:10D020002DE9F0472F4FFFF7F5FDDFF8C090804660
:10D030007E6800202C4C002E48DD00234FF48671C2
:10D040001D4601FB0372013392F805219E4245EA19
:10D050000205F6D128435FFA80FAD9F80430C3F309
:10D06000080383BBEFF311836BBB4FF0E02CD4F8C4
:10D07000D432DCF81810D4F8D4229342F7D1D4F883
:10D080006C2F9142F3D8D4F824CF4FF47A7202FB7C
:10D090000CF0401AB0FBFCF002FB0300A0EB08030D
:10D0A000B3F5FA6FCCBF002005F001000028C2D113
:10D0B000BAF1000F04D00C4B93F8752F542A08D006
:10D0C0005046BDE8F087FFF77BFDE7E78246002585
:10D0D000C3E7B3F87C2F50460132A3F87C2FBDE89C
:10D0E000F08700BFA80100209019012000ED00E0AA
:10D0F0002DE9F04F874C83B00746D4F8E09294F8BE
:10D10000E8320191B9F1000F0BD083F00202B9F8B7
:10D110000410C2F34002120101FA02F2D9F8001021
:10D120008A61D4F8DC82B8F1000F09D003F0010362
:10D13000B8F804201B0102FA03F3D8F80020936129
:10D14000013F754E4FF0E0254FF47A7BFBB2009320
:10D15000B9F1000F08D0D9F80010B9F804304869C7
:10D16000034218BF1B048B61B8F1000F00F0C980A7
:10D17000D8F80010B8F80430486903424FF00100B5
:10D1800018BF1B048B610DF019F8DDF804A073685B
:10D19000C3F30803002B40F0B080EFF31183002BA2
:10D1A00040F0AB80D4F8D472A869D4F8D4128F427E
:10D1B000F8D1D4F86C1F8842F4D8D4F8243F0BFB84
:10D1C00003F1091AB1FBF3F10BFB07177368C3F303
:10D1D0000803002B40F08A80EFF31183002B40F00E
:10D1E0008580D4F8D432A969D4F8D4028342F8D126
:10D1F000D4F86C0F8142F4D8D4F8242F0BFB02F042
:10D20000401AB0FBF2F00BFB0300C31BB3F57A7FAF
:10D21000DCD3BAF1010ABAD1B9F1000F08D0D9F8BC
:10D220000010B9F804304869034218BF1B048B6131
:10D23000B8F1000F69D0D8F80010B8F80430486988
:10D2400003424FF0000018BF1B048B610CF0B6FFC7
:10D25000DDF804A07368C3F30803002B49D1EFF392
:10D260001183002B45D1D4F8D472A869D4F8D41214
:10D270008F42F8D1D4F86C1F8842F4D8D4F8243FF8
:10D280000BFB03F1091AB1FBF3F10BFB07177368F2
:10D29000C3F308033BBBEFF3118323BBD4F8D432B1
:10D2A000A969D4F8D4028342F8D1D4F86C0F814232
:10D2B000F4D8D4F8242F0BFB02F0401AB0FBF2F0A4
:10D2C0000BFB0300C31BB3F57A7FE0D3BAF1010A6D
:10D2D000C0D1009B5F1EFBB2FF2B00937FF438AFE1
:10D2E00003B0BDE8F08FFFF76BFCEBE7FFF768FCDE
:10D2F0008BE7FFF765FC0746C9E7FFF761FC0746C8
:10D3000064E701200CF05AFF3FE740460CF056FF5F
:10D310009EE700BF9019012000ED00E02DE9F041EB
:10D320000746DFF86080FFF775FC154C4FF0E025ED
:10D330000646D8F80430C3F30803EBB9EFF31183C2
:10D34000D3B9D4F8D432A969D4F8D4229342F8D10D
:10D35000D4F86C2F9142F4D8D4F824CF4FF47A72D9
:10D3600002FB0CF0401AB0FBFCF002FB0300831B35
:10D37000BB42DED3BDE8F081FFF722FCF7E700BF38
:10D380009019012000ED00E02DE9F041294F461EE3
:10D39000294C7B68C3F30803002B47D1EFF31183BB
:10D3A000002B43D14FF0E020D4F8D4328169D4F877
:10D3B000D4229342F8D1D4F86C2F9142F4D8D4F807
:10D3C000240F4FF47A7202FB00F8A8EB0108B8FBB7
:10D3D000F0F802FB03884FF0E0257B68C3F30803F5
:10D3E0000BBBEFF31183F3B9D4F8D432A969D4F8A5
:10D3F000D4229342F8D1D4F86C2F9142F4D8D4F8C7
:10D4000024CF4FF47A7202FB0CF0401AB0FBFCF010
:10D4100002FB0300A0EB0803B3F57A7FDDD3013EE6
:10D42000B7D2BDE8F081FFF7CBFBF3E7FFF7C8FB0E
:10D430008046D0E700ED00E09019012001302DE991
:10D44000F0475D4E4D1E5D4C5FFA80FA4FF4FA775F
:10D4500032210520FFF74CFE7368C3F30803002B4D
:10D4600040F0A180EFF31183002B40F09C804FF03F
:10D47000E020D4F8D4328169D4F8D4229342F8D190
:10D48000D4F86C2F9142F4D8D4F8240F4FF47A7268
:10D4900002FB00F9A9EB0109B9FBF0F902FB0399C2
:10D4A0004FF0E0287368C3F30803002B78D1EFF343
:10D4B0001183002B74D1D4F8D432D8F81810D4F8D2
:10D4C000D4229342F7D1D4F86C2F9142F3D8D4F8F8
:10D4D00024CF4FF47A7202FB0CF0401AB0FBFCF040
:10D4E00002FB0300A0EB0903B3F57A7FDAD3013F17
:10D4F000B2D14FF47A77FA215046FFF7F9FD7368FD
:10D50000C3F30803002B52D1EFF31183002B4ED14C
:10D510004FF0E020D4F8D4328169D4F8D422934279
:10D52000F8D1D4F86C2F9142F4D8D4F8240F4FF4EA
:10D530007A7202FB00F9A9EB0109B9FBF0F902FBD1
:10D5400003994FF0E0287368C3F308032BBBEFF394
:10D55000118313BBD4F8D432D8F81810D4F8D422DD
:10D560009342F7D1D4F86C2F9142F3D8D4F824CF5A
:10D570004FF47A7202FB0CF0401AB0FBFCF002FB95
:10D580000300A0EB0903B3F57A7FDCD3013FB6D1EA
:10D59000013DBFF45BAFBDE8F087FFF711FBF0E79B
:10D5A000FFF70EFB9EE7FFF70BFB814678E7FFF7DF
:10D5B00007FB8146C5E700BF00ED00E090190120A0
:10D5C000431C0A265D4D5E4C5FFA83FA80B54FF42A
:10D5D000FA7832210520FFF78BFD6B68C3F308034F
:10D5E000002B40F09F80EFF31183002B40F09A80D6
:10D5F0004FF0E020D4F8D4128369D4F8D4229142B9
:10D60000F8D1D4F86C2F9342F4D8D4F8240F4FF407
:10D610007A7202FB00F7FF1AB7FBF0F702FB017703
:10D620004FF0E0296B68C3F30803002B7ED1EFF3C2
:10D630001183002B7AD1D4F8D402D9F818C0D4F8C9
:10D64000D4329842F7D1D4F86C3F9C45F3D8D4F843
:10D65000241F4FF47A7202FB01F3A3EB0C03B3FB1C
:10D66000F1F302FB0033DB1BB3F57A7FDAD3B8F1B9
:10D670000108B2D14FF47A78FA215046FFF738FD0D
:10D680006B68C3F30803002B48D1EFF31183002B21
:10D6900044D14FF0E020D4F8D4128369D4F8D422D6
:10D6A0009142F8D1D4F86C2F9342F4D8D4F8240FD7
:10D6B0004FF47A7202FB00F7FF1AB7FBF0F702FB98
:10D6C00001774FF0E0296B68C3F3080393BBEFF3D6
:10D6D00011837BBBD4F8D402D9F818C0D4F8D43263
:10D6E0009842F7D1D4F86C3F9C45F3D8D4F8241F66
:10D6F0004FF47A7202FB01F3A3EB0C03B3FBF1F3DB
:10D7000002FB0033DB1BB3F57A7FDCD3B8F10108F1
:10D71000B6D1013E7FF45BAF44F056FEFFF750FAFE
:10D720000746CEE7FFF74CFA074679E7FFF748FAD6
:10D73000034698E7FFF744FA0346E3E700ED00E00D
:10D740009019012038B5094C04F5407502E0083401
:10D75000AC420AD094F90620002AF8D120460834B9
:10D760002021FCF779FCAC42F4D138BD3C230120E8
:10D77000094B02460220D3F82C13B2EB910F4FEA6B
:10D78000910307D25B0840009A4280B202D2FF2880
:10D79000F8D97047704700BF901901202DE9F04F6C
:10D7A0007F4E85B0DFF814B24FF0010A4FF0000948
:10D7B0007C4D09E009F101090AF1010A28360BF153
:10D7C000050BB9F1040F34D03378022BF2D19BF959
:10D7D0000330591C00F0CE80DAB296460C230820A4
:10D7E0005FFA89F1039613FB0200D3B2012B17D81D
:10D7F0006D4B02E01C33AB4212D01C78002CF9D1E7
:10D800005E788E42F6D11E58002EF3D0674FB44694
:10D8100002977E6801342437B4450DD0102CF8D11E
:10D8200001320C30D3B29E45E0D20023039E019317
:10D8300027E005B0BDE8F08FE4B25D4E671E0194AD
:10D8400007EBC70406EB840CA4009CF99880B8F1A0
:10D85000000FE5D102EB420207F00707019803EB46
:10D8600082038CF884708CF899A0DB68DDE90216DD
:10D87000CCF88830142321448CF898303161FCF7BF
:10D8800061FB9BF904305A1C70D0D9B288460C2336
:10D8900008275FFA89F0039613FB0177CBB2012BBF
:10D8A00018D8414A02E01C32AA4213D01378012B47
:10D8B000F9D153788342F6D1D659002EF3D03B4BA1
:10D8C0000024B44602935E6801342433B44521D069
:10D8D000102CF8D101310C37CBB24345DFD9019B75
:10D8E000039E002B3DD0019F2422304800247B1E44
:10D8F000746102FB03003061FAF7C4FB3046FAF7AB
