:020000040800F2
:1000000000060020E1010008E3010008E301000808
:10001000E3010008E3010008E3010008E301000830
:10002000E3010008E3010008E30100083536000899
:10003000E3010008E3010008E3010008E301000810
:10004000E3010008E3010008E3010008E301000800
:10005000E3010008E3010008DD3800080539000865
:100060002D390008553900087D390008E3010008E2
:10007000E3010008E3010008E3010008E3010008D0
:10008000E3010008E3010008E3010008E3010008C0
:10009000E3010008E3010008E3010008A5390008B6
:1000A000E3010008E3010008E3010008E3010008A0
:1000B0008D3A0008E3010008E3010008E3010008AD
:1000C000E3010008E3010008E3010008E301000880
:1000D000E3010008793A0008E3010008E3010008A1
:1000E000093A0008E3010008E3010008E301000801
:1000F000E3010008E3010008E3010008E301000850
:10010000E3010008E3010008E3010008E30100083F
:10011000E3010008E3010008E3010008E30100082F
:10012000E3010008E3010008E3010008E30100081F
:10013000E3010008E3010008E3010008E30100080F
:10014000E3010008E3010008E3010008E92D0008CD
:10015000E3010008E3010008E3010008E3010008EF
:10016000E3010008E3010008E3010008E3010008DF
:10017000E3010008E3010008E3010008E3010008CF
:10018000E3010008E3010008E3010008E3010008BF
:10019000E3010008E3010008E3010008E3010008AF
:1001A000E3010008E3010008E3010008E30100089F
:1001B000E3010008E3010008E3010008E30100088F
:1001C000E3010008E3010008E3010008E30100087F
:1001D000E3010008E3010008E3010008E30100086F
:1001E00002E000F000F8FEE772B6374880F30888B6
:1001F000364880F3098836483649086040F20000E6
:10020000CCF200004EF63471CEF200010860BFF36C
:100210004F8FBFF36F8F40F20000C0F2F0004EF638
:100220008851CEF200010860BFF34F8FBFF36F8F8C
:100230004FF00000E1EE100A4EF63C71CEF20001E4
:100240000860062080F31488BFF36F8F02F094FAE1
:1002500003F08EF94FF055301F491B4A91423CBFC5
:1002600041F8040BFAE71D49184A91423CBF41F896
:10027000040BFAE71A491B4A1B4B9A423EBF51F83E
:10028000040B42F8040BF8E700201849184A914281
:100290003CBF41F8040BFAE702F072FA03F0BCF934
:1002A000144C154DAC4203DA54F8041B8847F9E7A7
:1002B00000F042F8114C124DAC4203DA54F8041B22
:1002C0008847F9E702F05ABA000600200022002011
:1002D0000000000808ED00E00000002000060020FB
:1002E000983E0008002200204C22002050220020CE
:1002F000F0300020E0010008E0010008E001000803
:10030000E00100082DE9F04F2DED108AC1F80CD066
:10031000C3689D46BDEC108ABDE8F08F002383F3CF
:1003200011882846A047002001F0C2FDFEE701F039
:100330002BFD00DFFEE7000038B500F063FB02F0A4
:10034000EBF9054602F00EFA0446D8B90F4B9D4270
:100350001AD001339D4218BF044641F2883504BFCC
:1003600001240025002002F0E1F90CB100F076F83C
:1003700000F01EFD00F0B2FB284600F0B9F800F0D6
:100380006DF8F9E70025EDE70546EBE7010007B05A
:1003900008B500F06FFBA0F120035842584108BD9A
:1003A00007B541F21203022101A8ADF8043000F0B4
:1003B0007FFB03B05DF804FB38B5302383F311886D
:1003C000174803680BB101F03FFE164A144800239A
:1003D0004FF47A7101F02EFE002383F31188124C42
:1003E000236813B12368013B2360636813B163681A
:1003F000013B63600D4D2B7833B963687BB90220F4
:1004000000F046FC322363602B78032B07D163682E
:100410002BB9022000F03CFC4FF47A73636038BDC6
:1004200050220020B9030008702300206822002019
:10043000084B187003280CD8DFE800F00805020804
:10044000022000F013BC022000F0FEBB024B002291
:100450005A60704768220020702300201F4B204AFA
:1004600010B51C461968013137D004339342F9D1D5
:1004700062681C4B9A4230D91B4B9B6803F10063A6
:1004800003F580339A4228D2002000F041FB02207D
:10049000FFF7CEFF154B1A6C00221A64196E1A660C
:1004A000196E596C5A64596E5A665A6E1A6942F03E
:1004B00000521A611A6922F000521A611B6972B661
:1004C0004FF0E0233021C3F8084DD4E9003281F326
:1004D00011889D4683F30888104710BD000001086D
:1004E00020000108FFFF0008002200200038024021
:1004F0002DE9F04F93B0AA4B00902022FF210AA8CB
:100500009D6800F0FFFBA74A1378A3B9A648012114
:1005100003601170302383F3118803680BB101F07D
:1005200093FDA24AA04800234FF47A7101F082FDA6
:10053000002383F31188009B13B19D4B009A1A602E
:100540009C4A009C1378032B1EBF00231370984A0B
:100550004FF0000A18BF5360D3465646D1460120DB
:1005600000F084FB24B1924B1B68002B00F0118239
:10057000002000F07FFA0390039B002BF2DB0120A8
:1005800000F062FB039B213B162BE8D801A252F836
:1005900023F000BFF105000819060008AD060008A9
:1005A0005F0500085F0500085F05000837070008C1
:1005B000070900082108000883080008AB080008A4
:1005C000D10800085F050008E30800085F0500087F
:1005D00055090008910600085F0500089909000800
:1005E000FD050008910600085F0500088308000863
:1005F0000220FFF7CDFE002840F0F581009B02218C
:10060000BAF1000F08BF1C4605A841F21233ADF83D
:10061000143000F04DFAA2E74FF47A7000F02AFA95
:10062000071EEBDB0220FFF7B3FE0028E6D0013FF8
:10063000052F00F2DA81DFE807F0030A0D10133608
:1006400005230593042105A800F032FA17E0544869
:100650000421F9E758480421F6E758480421F3E754
:100660004FF01C08404600F055FA08F104080590C8
:10067000042105A800F01CFAB8F12C0FF2D10120DA
:1006800000FA07F747EA0B0B5FFA8BFB4FF0000904
:1006900000F084FB26B10BF00B030B2B08BF0024EA
:1006A000FFF77EFE5BE746480421CDE7002EA5D08C
:1006B0000BF00B030B2BA1D10220FFF769FE0746BD
:1006C00000289BD0012000F023FA0220FFF7B0FEA3
:1006D00000265FFA86F8404600F02AFA044690B1F8
:1006E0000021404600F034FA01360028F1D1BA4624
:1006F000044641F21213022105A8ADF814303E461B
:1007000000F0D6F92BE70120FFF792FE2546244B97
:100710009B68AB4207D9284600F0FCF9013040F055
:1007200067810435F3E7234B00251D70204BBA4643
:100730005D603E46ACE7002E3FF460AF0BF00B036C
:100740000B2B7FF45BAF0220FFF772FE322000F02C
:1007500091F9B0F10008FFF651AF18F003077FF4EC
:100760004DAF0F4A926808EB050393423FF646AF40
:10077000B8F5807F3FF742AF124B0193B84523DDB8
:100780004FF47A7000F076F90390039A002AFFF68E
:1007900035AF019B039A03F8012B0137EDE700BF4A
:1007A000002200206C23002050220020B903000802
:1007B000702300206822002004220020082200204C
:1007C0000C2200206C220020C820FFF7E1FD074624
:1007D00000283FF413AF1F2D11D8C5F12002424568
:1007E0000AAB25F0030028BF424683490192184412
:1007F00000F062FA019A8048FF2100F083FA4FEA84
:10080000A8037D490193C8F38702284600F082FAC5
:10081000064600283FF46DAF019B05EB830537E7E3
:100820000220FFF7B5FD00283FF4E8AE00F0BCF968
:1008300000283FF4E3AE0027B846704B9B68BB42EC
:1008400018D91F2F11D80A9B01330ED027F00303AC
:1008500012AA134453F8203C05934046042205A9EC
:1008600000F008FB04378046E7E7384600F052F90D
:100870000590F2E7CDF81480042105A800F018F9DE
:1008800006E70023642104A8049300F007F9002878
:100890007FF4B4AE0220FFF77BFD00283FF4AEAE3C
:1008A000049800F069F90590E6E70023642104A8A4
:1008B000049300F0F3F800287FF4A0AE0220FFF7C5
:1008C00067FD00283FF49AAE049800F065F9EAE766
:1008D0000220FFF75DFD00283FF490AE00F074F9B0
:1008E000E1E70220FFF754FD00283FF487AE05A999
:1008F000142000F06FF904210746049004A800F0CA
:10090000D7F83946B9E7322000F0B4F8071EFFF6F1
:1009100075AEBB077FF472AE384A926807EB0903E5
:1009200093423FF66BAE0220FFF732FD00283FF402
:1009300065AE27F003074F44B9453FF4A9AE4846DA
:1009400000F0E8F80421059005A800F0B1F809F1DD
:100950000409F1E74FF47A70FFF71AFD00283FF41D
:100960004DAE00F021F9002844D00A9B01330BD092
:1009700008220AA9002000F0CDF900283AD0202250
:10098000FF210AA800F0BEF9FFF70AFD1C4801F09C
:1009900095FA13B0BDE8F08F002E3FF42FAE0BF0A8
:1009A0000B030B2B7FF42AAE0023642105A80593CB
:1009B00000F074F8074600287FF420AE0220FFF70D
:1009C000E7FC804600283FF419AEFFF7E9FC41F24E
:1009D000883001F073FA059800F02AFA464600F0D4
:1009E000DDF93C46BBE5064652E64FF0000905E658
:1009F000BA467EE637467CE66C22002000220020C4
:100A0000A0860100704700002DE9F84F4FF47A737B
:100A1000DFF85880DFF8589006460D4602FB03F7D2
:100A2000002498F900305A1C5FFA84FA01D0A342DE
:100A300012D159F8240003682A46D3F820B0314671
:100A40003B46D847854207D1074B012083F800A0D9
:100A5000BDE8F88F0124E4E7002CFBD04FF4FA70D6
:100A600001F02CFA0020F3E7B82300201022002028
:100A70001422002007B50023024601210DF10700D2
:100A80008DF80730FFF7C0FF20B19DF8070003B0D5
:100A90005DF804FB4FF0FF30F9E700000A4608B5A7
:100AA0000421FFF7B1FF80F00100C0B2404208BD51
:100AB00030B4074B0A461978064B53F82140236897
:100AC000DD69054B0146AC46204630BC604700BF9F
:100AD000B823002014220020A086010070B501F088
:100AE0000DFD094E094D308000242868338883426B
:100AF00008D901F0FDFC2B6804440133B4F5803FB4
:100B00002B60F2D370BD00BFBA23002078230020F1
:100B100001F0B6BD00F1006000F58030006870475C
:100B200000F10060920000F5803001F035BD00005A
:100B3000054B1A68054B1B889B1A834202D9104447
:100B400001F0D6BC0020704778230020BA23002093
:100B500038B5084D044629B128682044BDE838401E
:100B600001F0E6BC2868204401F0CAFC0028F3D05C
:100B700038BD00BF7823002010F003030AD1B0F580
:100B8000047F05D200F10050A0F51040D0F80038E5
:100B9000184670470023FBE700F10050A0F5104015
:100BA000D0F8100A70470000064991F8243033B19C
:100BB0000023086A81F824300822FFF7B1BF012022
:100BC000704700BF7C230020014B1868704700BFAE
:100BD000002004E070B5194B1D68194B0138C5F3AE
:100BE0000B0408442D0C04221E88A6420BD15C681D
:100BF0000A46013C824213460FD214F9016F4EB1EE
:100C000002F8016BF6E7013A03F10803ECD18142E7
:100C10000B4602D22C2203F8012B0A4A052416881F
:100C2000AE4204D1984284BF967803F8016B013C30
:100C300002F10402F3D1581A70BD00BF002004E095
:100C40007C3B0008683B0008022804D1054B4FF4A8
:100C500080429A6170470128FCD1034B4FF4005247
:100C6000F7E700BF0008024000000240022804D15C
:100C7000054B4FF080429A6170470128FCD1034B2D
:100C80004FF00052F7E700BF0008024000000240AA
:100C9000022805D1064A536983F4804353617047A3
:100CA0000128FCD1034A536983F40053F6E700BFDF
:100CB000000802400000024010B50023934203D018
:100CC000CC5CC4540133F9E710BD000010B5013805
:100CD00010F9013F3BB191F900409C4203D11AB198
:100CE0000131013AF4E71AB191F90020981A10BDC8
:100CF0001046FCE703460246D01A12F9011B0029F0
:100D0000FAD1704702440346934202D003F8011B14
:100D1000FAE770472DE9F8431F4D144695F8242053
:100D20000746884652BBDFF870909CB395F8243094
:100D30002BB92022FF2148462F62FFF7E3FF95F8E9
:100D40002400C0F10802A24228BF2246D6B2414682
:100D5000920005EB8000FFF7AFFF95F82430A41B4D
:100D60001E44F6B2082E17449044E4B285F824607D
:100D7000DBD1FFF719FF0028D7D108E02B6A03EB7E
:100D800082038342CFD0FFF70FFF0028CBD1002092
:100D9000BDE8F8830120FBE77C230020024B1A7892
:100DA000024B1A70704700BFB823002010220020A9
:100DB00038B5194C194D204600F0C0FB2946204695
:100DC00000F0E8FB2D6816486A6DD2F8043843F04D
:100DD0000203C2F8043801F071F81249284600F005
:100DE000DFFC6A6D104DD2F8043828680F4923F0F3
:100DF0000203C2F80438A0424FF4E1330B6001D083
:100E000000F0FCFA6868A04204D0BDE83840074909
:100E100000F0F4BA38BD00BF98280020843C0008D8
:100E200040420F008C3C000814220020A423002024
:100E300070B50C4B0C4D1E780C4B55F826209A4281
:100E400004460DD00A4B002114221846FFF75AFF22
:100E50000460014655F82600BDE8704000F0CEBAA7
:100E600070BD00BFB8230020142200209828002065
:100E7000A423002030B5094D0A4491420DD011F849
:100E8000013B5840082340F30004013B2C4013F081
:100E9000FF0384EA5000F6D1EFE730BD2083B8EDC0
:100EA000026843681143016003B1184770470000AE
:100EB000024AD36843F0C003D3607047001001407A
:100EC00010B5084C084A0021204600F075FA074B7F
:100ED000C4F85C3203F1454303F52D43C4F8603296
:100EE00010BD00BFBC230020B10E0008001001405F
:100EF000234A037C002918BF0A46012B30B5C0F8ED
:100F000068220CD11F4B984209D11F4B596C41F0FC
:100F100010015964596E41F0100159665B6EB2F9C7
:100F200004501468D0F86032D0F85C12002D03EB46
:100F30005403B3FBF4F3BEBF23F0070503F007032C
:100F400043EA450394888B60D38843F040030B61E8
:100F5000138943F001034B6144F4045343F02C0321
:100F6000CB6004F4A05400230B60B4F5806F0B68D1
:100F70004B680CBF7F23FF2380F8643230BD00BF75
:100F80009C3B0008BC230020003802402DE9F041C2
:100F9000D0F85C62F7683368DA0504469DB20DD577
:100FA000302383F311884FF480610430FFF778FF1A
:100FB0006FF480733360002383F31188302383F34D
:100FC000118804F1040815F02F033AD183F3118836
:100FD000380615D5290613D5302383F3118804F17B
:100FE000380000F065F900284EDA0821201DFFF7CF
:100FF00057FF4FF67F733B40F360002383F3118864
:101000007A0616D56B0614D5302383F31188D4E9FC
:1010100013239A420AD1236C43B127F040073F04BF
:101020001021201D3F0CFFF73BFFF760002383F3E7
:101030001188D4F86822D36843B3BDE8F041106941
:1010400018472B0714D015F0080F0CBF00214FF4E0
:101050008071E80748BF41F02001AA0748BF41F06E
:1010600040016B0748BF41F080014046FFF718FF81
:10107000AD06736805D594F864122046194000F057
:10108000CBF93568ADB29EE77060B6E7BDE8F08198
:10109000F8B5154682680669AA420B46816938BFD1
:1010A0008568761AB54204460BD218462A46FFF7E1
:1010B00003FEA3692B44A361A3685B1BA3602846BE
:1010C000F8BD0CD918463246FFF7F6FDAF1BE168B4
:1010D0003A463044FFF7F0FDE3683B44EBE718463F
:1010E0002A46FFF7E9FDE368E5E7000083689342DD
:1010F000F7B51546044638BF8568D0E90460361A4E
:10110000B5420BD22A46FFF7D7FD63692B446361D2
:10111000A36828465B1BA36003B0F0BD0DD932461F
:101120000191FFF7C9FD0199E068AF1B3A463144D0
:10113000FFF7C2FDE3683B44E9E72A46FFF7BCFD41
:10114000E368E4E710B50A440024C361029B8460AD
:10115000C0E90000C0E90511C1600261036210BD71
:1011600008B5D0E90532934201D1826882B982681C
:10117000013282605A1C42611970D0E904329A42ED
:1011800024BFC3684361002100F0B4FE002008BD05
:101190004FF0FF30FBE7000070B5302304460E46E9
:1011A00083F31188A568A5B1A368A269013BA36078
:1011B000531CA36115782269934224BFE368A3619D
:1011C000E3690BB120469847002383F31188284632
:1011D00007E03146204600F07DFE0028E2DA85F384
:1011E000118870BD2DE9F74F04460E461746984604
:1011F000D0F81C904FF0300A8AF311884FF0000BA2
:10120000154665B12A4631462046FFF741FF0346A1
:1012100060B94146204600F05DFE0028F1D0002371
:1012200083F31188781B03B0BDE8F08FB9F1000F8C
:1012300003D001902046C847019B8BF31188ED1A1B
:101240001E448AF31188DCE7C0E90511C160C3615F
:101250001144009B8260C0E9000001610362704795
:10126000F8B504460D461646302383F31188A76867
:10127000A7B1A368013BA36063695A1C62611D703A
:10128000D4E904329A4224BFE3686361E3690BB195
:1012900020469847002080F3118807E03146204619
:1012A00000F018FE0028E2DA87F31188F8BD00008C
:1012B000D0E905239A4210B501D182687AB98268D3
:1012C000013282605A1C82611C7803699A4224BFF1
:1012D000C3688361002100F00DFE204610BD4FF071
:1012E000FF30FBE72DE9F74F04460E4617469846B8
:1012F000D0F81C904FF0300A8AF311884FF0000BA1
:10130000154665B12A4631462046FFF7EFFE0346F3
:1013100060B94146204600F0DDFD0028F1D00023F1
:1013200083F31188781B03B0BDE8F08FB9F1000F8B
:1013300003D001902046C847019B8BF31188ED1A1A
:101340001E448AF31188DCE7026843681143016098
:1013500003B11847704700001430FFF743BF000087
:101360004FF0FF331430FFF73DBF00003830FFF778
:10137000B9BF00004FF0FF333830FFF7B3BF0000B4
:101380001430FFF709BF00004FF0FF311430FFF7B2
:1013900003BF00003830FFF763BF00004FF0FF329B
:1013A0003830FFF75DBF0000012914BF6FF0130054
:1013B00000207047FFF784BD37B515460E4A02601E
:1013C00000224260C0E902220122044602740B4658
:1013D000009000F15C014FF480721430FFF7B2FE10
:1013E00000942B464FF4807204F5AE7104F138007E
:1013F000FFF72AFF03B030BDB03B000810B5302323
:10140000044683F31188FFF773FD02232374002041
:1014100080F3118810BD000038B5C36904460D463D
:101420001BB904210844FFF78FFF294604F114007B
:10143000FFF796FE002806DA201D4FF40061BDE894
:101440003840FFF781BF38BD02684368114301602F
:1014500003B118477047000013B5446BD4F89434B7
:101460001A681178042915D1217C022912D1197921
:10147000128901238B4013420CD101A904F14C00C5
:1014800001F032FFD4F89444019B21790246206890
:1014900000F0D0F902B010BD143001F0B5BE00006C
:1014A0004FF0FF33143001F0AFBE00004C3001F0BC
:1014B00087BF00004FF0FF334C3001F081BF0000C8
:1014C000143001F083BE00004FF0FF31143001F002
:1014D0007DBE00004C3001F053BF00004FF0FF32E2
:1014E0004C3001F04DBF00000020704710B5D0F81F
:1014F00094341A6811780429044617D1017C022912
:1015000014D15979528901238B4013420ED11430E2
:1015100001F016FE024648B1D4F894444FF48073AB
:1015200061792068BDE8104000F072B910BD00007C
:10153000406BFFF7DBBF0000704700007FB5124B28
:10154000036000234360C0E90233012502260F4BEC
:10155000057404460290019300F184022946009626
:101560004FF48073143001F0C7FD094B0294CDE9AC
:10157000006304F523724FF48073294604F14C0094
:1015800001F08EFE04B070BDD83B00083115000894
:10159000591400080B68302282F311880A7903EB92
:1015A000820290614A79093243F822008A7912B1A5
:1015B00003EB820398610223C0F8941403740020A3
:1015C00080F311887047000038B5037F044613B1DB
:1015D00090F85430ABB9201D01250221FFF734FFEC
:1015E00004F1140025776FF0010100F08FFC84F8FE
:1015F000545004F14C006FF00101BDE8384000F098
:1016000085BC38BD10B5012104460430FFF71CFF2E
:101610000023237784F8543010BD000038B5044609
:101620000025143001F080FD04F14C00257701F015
:101630004FFE201D84F854500121FFF705FF20467E
:10164000BDE83840FFF752BF90F8443003F0600324
:10165000202B07D190F84520212A4FF0000303D812
:101660001F2A06D800207047222AFBD1C0E90E337A
:1016700003E0034A82630722C263036401207047C8
:101680001C22002037B5D0F894341A681178042948
:1016900004461AD1017C022917D119791289012334
:1016A0008B40134211D100F14C05284601F0D0FEC9
:1016B00058B101A9284601F017FED4F89444019BC3
:1016C00021790246206800F0B5F803B030BD000073
:1016D000F0B500EB810385B09E6904460D46FEB16E
:1016E000302383F3118804EB8507301D0821FFF7B1
:1016F000ABFEFB685B691B6806F14C001BB10190F7
:1017000001F000FE019803A901F0EEFD024648B188
:10171000039B2946204600F08DF8002383F31188AF
:1017200005B0F0BDFB685A691268002AF5D01B8A23
:10173000013B1340F1D104F14402EAE7093138B525
:1017400050F82140DCB1302383F31188D4F894247D
:101750001368527903EB8203DB689B695D6845B1CE
:1017600004216018FFF770FE294604F1140001F00F
:10177000F1FC2046FFF7BAFE002383F3118838BD41
:101780007047000001F050B8012303700023C0E946
:101790000133C36183620362C362436203637047C0
:1017A00038B50446302383F311880025C0E903557A
:1017B000C0E90555416001F047F80223237085F325
:1017C0001188284638BD000070B500EB810305463E
:1017D0005069DA600E46144618B110220021FFF756
:1017E00091FAA06918B110220021FFF78BFA314657
:1017F0002846BDE8704001F0F1B80000826802F0B0
:10180000011282600022C0E90422826101F072B9F3
:10181000F0B400EB81044789E4680125A4698D4098
:101820003D43458123600023A2606360F0BC01F06A
:101830008DB90000F0B400EB81040789E46801254C
:1018400064698D403D43058123600023A26063608D
:10185000F0BC01F007BA000070B502230025044671
:101860000370C0E90255C0E90455C564856180F87C
:10187000345001F04FF863681B6823B129462046B5
:10188000BDE87040184770BD0378052B10B50446BD
:101890000AD080F850300523037043681B680BB1F1
:1018A000042198470023A36010BD0000017805299A
:1018B00006D190F85020436802701B6803B11847A6
:1018C0007047000070B590F83430044613B100231F
:1018D00080F8343004F14402204601F02DF96368A9
:1018E0009B68B3B994F8443013F0600535D00021FB
:1018F000204601F0CDFB0021204601F0BFFB6368CC
:101900001B6813B1062120469847062384F834301B
:1019100070BD204698470028E4D0B4F84A30E26B06
:101920009A4288BFE36394F94430E56B002B4FF093
:10193000300380F20381002D00F0F280092284F848
:10194000342083F311880021D4E90E232046FFF7C9
:1019500071FF002383F31188DAE794F8452003F040
:101960007F0343EA022340F20232934200F0C58033
:1019700021D8B3F5807F48D00DD8012B3FD0022B62
:1019800000F09380002BB2D104F14C02A26302223A
:10199000E2632364C1E7B3F5817F00F09B80B3F578
:1019A000407FA4D194F84630012BA0D1B4F84C303C
:1019B00043F0020332E0B3F5006F4DD017D8B3F512
:1019C000A06F31D0A3F5C063012B90D8636894F861
:1019D00046205E6894F84710B4F848302046B04777
:1019E000002884D04368A3630368E3631AE0B3F577
:1019F000106F36D040F6024293427FF478AF5C4BD2
:101A0000A3630223E3630023C3E794F84630012B6A
:101A10007FF46DAFB4F84C3023F00203C4E90E55E7
:101A2000A4F84C30256478E7B4F84430B3F5A06FDF
:101A30000ED194F8463084F84E30204600F0C2FFB4
:101A400063681B6813B10121204698470323237064
:101A50000023C4E90E339CE704F14F03A363012381
:101A6000C3E72378042B10D1302383F31188204659
:101A7000FFF7C4FE85F311880321636884F84F5093
:101A800021701B680BB12046984794F84630002B14
:101A9000DED084F84F300423237063681B68002B6A
:101AA000D6D0022120469847D2E794F848301D0648
:101AB00003F00F0120460AD501F030F8012804D0C8
:101AC00002287FF414AF2B4B9AE72B4B98E701F0D9
:101AD00017F8F3E794F84630002B7FF408AF94F83A
:101AE000483013F00F01B3D01A06204602D501F09A
:101AF000E3FAADE701F0D6FAAAE794F84630002BF6
:101B00007FF4F5AE94F8483013F00F01A0D01B0617
:101B1000204602D501F0BCFA9AE701F0AFFA97E748
:101B2000142284F8342083F311882B462A46294650
:101B30002046FFF76DFE85F31188E9E65DB11522B9
:101B400084F8342083F311880021D4E90E23204641
:101B5000FFF75EFEFDE60B2284F8342083F3118844
:101B60002B462A4629462046FFF764FEE3E700BFDE
:101B7000083C0008003C0008043C000838B590F818
:101B800034300446002B3ED0063BDAB20F2A34D85C
:101B90000F2B32D8DFE803F03731310822323131F0
:101BA0003131313131313737C56BB0F84A309D4270
:101BB00014D2C3681B8AB5FBF3F203FB12556DB94F
:101BC000302383F311882B462A462946FFF732FE3D
:101BD00085F311880A2384F834300EE0142384F846
:101BE0003430302383F3118800231A4619462046E7
:101BF000FFF70EFE002383F3118838BD036C03B199
:101C000098470023E7E70021204601F041FA002130
:101C1000204601F033FA63681B6813B106212046A1
:101C200098470623D7E7000010B590F83430142BFE
:101C3000044629D017D8062B05D001D81BB110BDFA
:101C4000093B022BFBD80021204601F021FA00219C
:101C5000204601F013FA63681B6813B10621204681
:101C60009847062319E0152BE9D10B2380F834306F
:101C7000302383F3118800231A461946FFF7DAFD53
:101C8000002383F31188DAE7C3689B695B68002B44
:101C9000D5D1036C03B19847002384F83430CEE7E4
:101CA00000230375826803691B6899689142FBD21F
:101CB0005A680360426010605860704700230375E3
:101CC000826803691B6899689142FBD85A6803606F
:101CD000426010605860704708B50846302383F3AF
:101CE00011880B7D032B05D0042B0DD02BB983F36A
:101CF000118808BD8B6900221A604FF0FF338361A1
:101D0000FFF7CEFF0023F2E7D1E9003213605A60FB
:101D1000F3E70000FFF7C4BF054BD96808751868E2
:101D200002681A60536001220275D860FEF7EABAB1
:101D30002826002030B50C4BDD684B1C87B00446CC
:101D40000FD02B46094A684600F074F92046FFF789
:101D5000E3FF009B13B1684600F076F9A86907B06D
:101D600030BDFFF7D9FFF9E728260020D91C00086D
:101D7000044B1A68DB6890689B68984294BF002007
:101D80000120704728260020084B10B51C68D86831
:101D900022681A60536001222275DC60FFF78EFF13
:101DA00001462046BDE81040FEF7ACBA28260020C8
:101DB000044B1A68DB6892689B689A4201D9FFF766
:101DC000E3BF70472826002038B5074C074908486C
:101DD000012300252370656001F072FB022323704C
:101DE00085F3118838BD00BF90280020103C000802
:101DF0002826002000F05EB9EFF3118020B9EFF340
:101E00000583302282F311887047000010B530B985
:101E1000EFF30584C4F3080414B180F3118810BDF6
:101E2000FFF7C6FF84F31188F9E70000034A516801
:101E300053685B1A9842FBD8704700BF001000E05F
:101E40008B60022308618B82084670478368A3F188
:101E5000840243F8142C026943F8442C426943F885
:101E6000402C094A43F8242CC26843F8182C02225B
:101E700003F80C2C002203F80B2C044A43F8102C16
:101E8000A3F12000704700BF1D0300082826002092
:101E900008B5FFF7DBFFBDE80840FFF73BBF0000D8
:101EA000024BDB6898610F20FFF736BF2826002021
:101EB000302383F31188FFF7F3BF000008B5014614
:101EC000302383F311880820FFF734FF002383F3C6
:101ED000118808BD064BDB6839B1426818605A604A
:101EE000136043600420FFF725BF4FF0FF307047B9
:101EF000282600200368984206D01A6802605060C5
:101F000099611846FFF706BF7047000038B50446D0
:101F10000D462068844200D138BD036823605C60B0
:101F20008561FFF7F7FEF4E710B503689C68A242ED
:101F30000CD85C688A600B604C60216059609968BD
:101F40008A1A9A604FF0FF33836010BD1B68121B22
:101F5000ECE700000A2938BF0A2170B504460D4697
:101F60000A26601901F0A6FA01F092FA041BA542B4
:101F700003D8751C2E460446F3E70A2E04D9BDE8A3
:101F80007040012001F0DCBA70BD0000F8B5144BC0
:101F90000D46D96103F1100141600A2A1969826076
:101FA00038BF0A22016048601861A818144601F081
:101FB00073FA0A2701F06CFA431BA342064606D3C4
:101FC0007C1C281901F076FA27463546F2E70A2FDD
:101FD00004D9BDE8F840012001F0B2BAF8BD00BF55
:101FE00028260020F8B506460D4601F051FA0F4AA2
:101FF000134653F8107F9F4206D12A4601463046C9
:10200000BDE8F840FFF7C2BFD169BB68441A2C197C
:1020100028BF2C46A34202D92946FFF79BFF224640
:1020200031460348BDE8F840FFF77EBF2826002070
:102030003826002010B4C0E9032300235DF8044BC8
:102040004361FFF7CFBF000010B5194C23699842D8
:102050000DD0D0E90032816813605A609A680A4452
:102060009A60002303604FF0FF33A36110BD234645
:10207000026843F8102F53600022026022699A42DE
:1020800003D1BDE8104001F00FBA936881680B449A
:10209000936001F0FDF92269E1699268441AA24255
:1020A000E4D91144BDE81040091AFFF753BF00BF3F
:1020B000282600202DE9F047DFF8BC8008F1100742
:1020C0002C4ED8F8105001F0E3F9D8F81C40AA685B
:1020D000031B9A423ED81444D5E900324FF0000960
:1020E000C8F81C4013605A60C5F80090D8F810304A
:1020F000B34201D101F0D8F989F31188D5E9033150
:1021000028469847302383F311886B69002BD8D079
:1021100001F0BEF96A69A0EB04094A4582460DD276
:10212000022001F00DFA0022D8F81030B34208D195
:1021300051462846BDE8F047FFF728BF121A22444F
:10214000F2E712EB090938BF4A4629463846FFF73D
:10215000EBFEB5E7D8F81030B34208D01444211A8A
:10216000C8F81C00A960BDE8F047FFF7F3BEBDE862
:10217000F08700BF38260020282600200020704766
:10218000FEE70000704700004FF0FF30704700008E
:1021900002290CD0032904D00129074818BF0020C8
:1021A0007047032A05D8054800EBC2007047044871
:1021B00070470020704700BFE83C00082C22002038
:1021C0009C3C000870B59AB00546084601A9144623
:1021D00000F0C2F801A8FEF78DFD431C5B00C5E9C5
:1021E00000340022237003236370C6B201AB0234B3
:1021F0001046D1B28E4204F1020401D81AB070BD6B
:1022000013F8011B04F8021C04F8010C0132F0E77A
:1022100008B5302383F311880348FFF733FA00230E
:1022200083F3118808BD00BF9828002090F844303F
:1022300003F01F02012A07D190F845200B2A03D191
:102240000023C0E90E3315E003F06003202B08D112
:10225000B0F848302BB990F84520212A03D81F2A1E
:1022600004D8FFF7F1B9222AEBD0FAE7034A8263D8
:102270000722C26303640120704700BF23220020AD
:1022800007B5052917D8DFE801F019160319192039
:10229000302383F31188104A01900121FFF794FA4B
:1022A00001980E4A0221FFF78FFA0D48FFF7B6F9A1
:1022B000002383F3118803B05DF804FB302383F31C
:1022C00011880748FFF780F9F2E7302383F311887C
:1022D0000348FFF797F9EBE73C3C0008603C000837
:1022E0009828002038B50C4D0C4C0D492A4604F1B5
:1022F0000800FFF767FF05F1CA0204F11000094961
:10230000FFF760FF05F5CA7204F118000649BDE841
:102310003840FFF757BF00BF602D00202C2200205F
:102320001C3C0008263C0008313C000870B50446FF
:1023300008460D46FEF7DEFCC6B22046013403789F
:102340000BB9184670BD32462946FEF7BFFC00287F
:10235000F3D10120F6E700002DE9F04705460C46D1
:10236000FEF7C8FC2B49C6B22846FFF7DFFF08B1CD
:102370000636F6B228492846FFF7D8FF08B11036CE
:10238000F6B2632E0BD8DFF88C80DFF88C90234FE9
:10239000DFF894A02E7846B92670BDE8F08729466C
:1023A0002046BDE8F04701F0C1BB252E2ED1072203
:1023B00041462846FEF78AFC70B9194B224603F1C4
:1023C0000C0153F8040B42F8040B8B42F9D11B7833
:1023D000137007350D34DDE7082249462846FEF71D
:1023E00075FC98B90F4BA21C197809090232C95D16
:1023F00002F8041C13F8011B01F00F015345C95DDD
:1024000002F8031CF0D118340835C3E704F8016B57
:102410000135BFE7083D0008313C00081E3D0008BB
:10242000103D0008107AFF1F1C7AFF1FBFF34F8F6B
:10243000024AD368DB03FCD4704700BF003C024073
:1024400008B5094B1B7873B9FFF7F0FF074B1A6902
:10245000002ABFBF064A5A6002F188325A601A68E1
:1024600022F480621A6008BDBE2F0020003C0240AA
:102470002301674508B50B4B1B7893B9FFF7D6FFCF
:10248000094B1A6942F000421A611A6842F48052FC
:102490001A601A6822F480521A601A6842F4806244
:1024A0001A6008BDBE2F0020003C02400B28F0B58A
:1024B00016D80C4C0C4923787BB90C4D0E460C23D6
:1024C0004FF0006255F8047B46F8042B013B13F0F3
:1024D000FF033A44F6D10123237051F82000F0BDE8
:1024E0000020FCE7F02F0020C02F0020303D000826
:1024F000014B53F820007047303D00080C20704716
:102500000B2810B5044601D9002010BDFFF7CEFFFF
:10251000064B53F824301844C21A0BB90120F4E7D3
:1025200012680132F0D1043BF6E700BF303D0008ED
:102530000B2838B5044628D8FFF75EFCFFF776FF76
:10254000FFF77EFF124AF323D360E300DBB243F4CC
:10255000007343F002031361136943F48033136182
:1025600005462046FFF762FFFFF7A0FF094B53F82F
:10257000241000F0E9F82846FFF77CFFFFF746FC3F
:102580002046BDE83840FFF7BBBF002038BD00BF84
:10259000003C0240303D000812F001032DE9F041FB
:1025A00005460E4614464BD18218B2F1016F61D830
:1025B000314B1B6813F001035CD0304FFFF71CFC5C
:1025C000FFF73EFFF323FB60FFF730FF314640F299
:1025D0000128032C18D824F00104284E0C446D1A4D
:1025E00040F20118A142336905EB01072AD123F01B
:1025F00001033361FFF73EFFFFF708FC0120BDE850
:10260000F081043C0435E4E7AB07E4D13B6923F4F3
:1026100040733B613B6943EA08033B6151F8046B3B
:102620002E60BFF34F8FFFF701FF2B689E42E8D06B
:102630003B6923F001033B61FFF71CFFFFF7E6FB5B
:102640000020DCE723F440733361336943EA080375
:1026500033610B883B80BFF34F8FFFF7E7FE3F8866
:1026600031F8023BBFB2BB42BCD0336923F0010357
:102670003361E1E71846C2E700380240003C0240FF
:10268000084908B50B7828B11BB9FFF7D9FE01231B
:102690000B7008BD002BFCD0BDE808400870FFF7A8
:1026A000E9BE00BFBE2F002010B50244064BD2B2D7
:1026B000904200D110BD441C00B253F8200041F8F4
:1026C000040BE0B2F4E700BF502800400F4B30B5D8
:1026D0001C6F240407D41C6F44F400741C671C6F27
:1026E00044F400441C670A4C236843F4807323605D
:1026F0000244084BD2B2904200D130BD441C00B21B
:1027000051F8045B43F82050E0B2F4E7003802408F
:10271000007000405028004007B5012201A90020A8
:10272000FFF7C2FF019803B05DF804FB13B5044640
:10273000FFF7F2FFA04205D0012201A90020019479
:10274000FFF7C4FF02B010BD70470000034B1A68CA
:102750001AB9034AD2F874281A607047F42F00207F
:102760000030024008B5FFF7F1FF024B1868C0F3D4
:10277000407008BDF42F002070470000FEE7000005
:102780000A4B0B480B4A90420BD30B4BDA1C121A24
:10279000C11E22F003028B4238BF00220021FEF747
:1027A000B1BA53F8041B40F8041BECE7E43E000800
:1027B000F0300020F0300020F030002070B5D0E97B
:1027C00015439E6800224FF0FF3504EB4213510180
:1027D000D3F800090028BEBFD3F8000940F08040BC
:1027E000C3F80009D3F8000B0028BEBFD3F8000BD4
:1027F00040F08040C3F8000B013263189642C3F8E2
:102800000859C3F8085BE0D24FF00113C4F81C3834
:1028100070BD0000890141F02001016103699B0640
:10282000FCD41220FFF702BB10B5054C2046FEF782
:10283000ABFF4FF0A0436365024BA36510BD00BF23
:10284000F82F0020843D000870B50378012B054661
:1028500050D12A4B446D98421BD1294B5A6B42F000
:1028600080025A635A6D42F080025A655A6D5A6965
:1028700042F080025A615A6922F080025A610E21A8
:1028800043205B6900F022FC1E4BE3601E4BC4F842
:1028900000380023C4F8003EC02323606E6D4FF45F
:1028A0000413A3633369002BFCDA012333610C208A
:1028B000FFF7BCFA3369DB07FCD41220FFF7B6FA46
:1028C0003369002BFCDA0026A6602846FFF776FF66
:1028D0006B68C4F81068DB68C4F81468C4F81C6836
:1028E0004BB90A4BA3614FF0FF336361A36843F018
:1028F0000103A36070BD064BF4E700BFF82F002072
:10290000003802404014004003002002003C30C068
:10291000083C30C0F8B5446D054600212046FFF75D
:1029200079FFA96D00234FF001128F68C4F8343885
:102930004FF00066C4F81C284FF0FF3004EB431240
:1029400001339F42C2F80069C2F8006BC2F808095F
:10295000C2F8080BF2D20B686A6DEB656362102354
:102960001361166916F01006FBD11220FFF75EFA0C
:10297000D4F8003823F4FE63C4F80038A36943F4A4
:10298000402343F01003A3610923C4F81038C4F8AE
:1029900014380A4BEB604FF0C043C4F8103B084BAF
:1029A000C4F8003BC4F81069C4F80039EB6D03F1BA
:1029B000100243F48013EA65A362F8BD603D00088D
:1029C00040800010426D90F84E10D2F8003823F489
:1029D000FE6343EA0113C2F8003870472DE9F8435B
:1029E00000EB8103456DDA68166806F00306731E76
:1029F000022B05EB41130C4680460FFA81F94FEA92
:102A000041104FF00001C3F8101B4FF0010104F119
:102A1000100398BFB60401FA03F391698EBF334ED9
:102A200006F1805606F5004600293AD0578A04F18F
:102A30005801490137436F50D5F81C180B43C5F8AE
:102A40001C382B180021C3F8101953690127611E87
:102A5000A7409BB3138A928B9B08012A88BF5343DC
:102A6000D8F85C20981842EA034301F1400205EBD4
:102A70008202C8F85C00214653602846FFF7CAFE70
:102A800008EB8900C3681B8A43EA84534834640115
:102A90001E432E51D5F81C381F43C5F81C78BDE8DD
:102AA000F88305EB4917D7F8001B21F40041C7F85C
:102AB000001BD5F81C1821EA0303C0E704F13F030B
:102AC00005EB83030A4A5A6028462146FFF7A2FE17
:102AD00005EB4910D0F8003923F40043C0F8003961
:102AE000D5F81C3823EA0707D7E700BF008000109D
:102AF00000040002826D1268C265FFF75FBE00002D
:102B00005831436D49015B5813F4004004D013F46D
:102B1000001F0CBF02200120704700004831436DA8
:102B200049015B5813F4004004D013F4001F0CBF9C
:102B3000022001207047000000EB8101CB68196A78
:102B40000B6813604B6853607047000000EB810313
:102B500030B5DD68AA691368D36019B9402B84BF0A
:102B6000402313606B8A1468426D1C44013CB4FB23
:102B7000F3F46343033323F0030302EB411043EA0E
:102B8000C44343F0C043C0F8103B2B6803F0030379
:102B9000012B09B20ED1D2F8083802EB411013F420
:102BA000807FD0F8003B14BF43F0805343F00053C4
:102BB000C0F8003B02EB4112D2F8003B43F0044363
:102BC000C2F8003B30BD00002DE9F041244D6E6D90
:102BD00006EB40130446D3F8087BC3F8087B38079C
:102BE0000AD5D6F81438190706D505EB8403214613
:102BF000DB6828465B689847FA071FD5D6F8143873
:102C0000DB071BD505EB8403D968CCB98B69488AEF
:102C10005A68B2FBF0F600FB16228AB91868DA6827
:102C200090420DD2121AC3E90024302383F3118895
:102C30000B482146FFF78AFF84F31188BDE8F08135
:102C4000012303FA04F26B8923EA02036B81CB6848
:102C5000002BF3D021460248BDE8F041184700BFE1
:102C6000F82F002000EB810370B5DD68436D6C69BF
:102C70002668E6604A0156BB1A444FF40020C2F8A9
:102C800010092A6802F00302012A0AB20ED1D3F811
:102C9000080803EB421410F4807FD4F8000914BF35
:102CA00040F0805040F00050C4F8000903EB42129D
:102CB000D2F8000940F00440C2F80009D3F8340803
:102CC000012202FA01F10143C3F8341870BD19B9A9
:102CD000402E84BF4020206020682E8A8419013C49
:102CE000B4FBF6F440EAC44040F000501A44C6E792
:102CF0002DE9F8433B4D6E6D06EB40130446D3F8C7
:102D00000889C3F8088918F0010F4FEA40171AD054
:102D1000D6F81038DB0716D505EB8003D9684B6968
:102D20001868DA68904230D2121A4FF000091A601F
:102D3000C3F80490302383F3118821462846FFF717
:102D400091FF89F3118818F0800F1CD0D6F8343821
:102D50000126A640334216D005EB84036D6DD3F8EF
:102D60000CC0DCF814200134E4B2D2F800E005EB2A
:102D700004342F445168714515D3D5F8343823EA0B
:102D80000606C5F83468BDE8F883012303FA04F2A7
:102D90002B8923EA02032B818B68002BD3D0214699
:102DA00028469847CFE7BCF81000AEEB01038342FA
:102DB00028BF0346D7F8180980B2B3EB800FE2D8DA
:102DC0009068A0F1040959F8048FC4F80080A0EBC2
:102DD00009089844B8F1040FF5D818440B449060E2
:102DE0005360C7E7F82F00202DE9F74FA24C656D1F
:102DF0006E69AB691E4016F480586E6107D020469C
:102E0000FEF72AFD03B0BDE8F04F00F047BC002EEE
:102E100012DAD5F8003E98489B071EBFD5F8003E51
:102E200023F00303C5F8003ED5F8043823F001036E
:102E3000C5F80438FEF73AFD370505D58E48FFF78B
:102E4000BDFC8D48FEF720FDB0040CD5D5F8083840
:102E500013F0060FEB6823F470530CBF43F41053C8
:102E600043F4A053EB6031071BD56368DB681BB9E3
:102E7000AB6923F00803AB612378052B0CD1D5F89F
:102E8000003E7D489A071EBFD5F8003E23F003039D
:102E9000C5F8003EFEF70AFD6368DB680BB17648B3
:102EA0009847F30274D4B70227D5D4F85490DFF8CA
:102EB000C8B100274FF0010A09EB4712D2F8003BD6
:102EC00003F44023B3F5802F11D1D2F8003B002B3F
:102ED0000DDA62890AFA07F322EA0303638104EB3D
:102EE0008703DB68DB6813B1394658469847A36D02
:102EF00001379B68FFB29F42DED9F00617D5676D98
:102F00003A6AC2F30A1002F00F0302F4F012B2F5AB
:102F1000802F00F08580B2F5402F08D104EB8303A9
:102F20000022DB681B6A07F5805790426AD13003A4
:102F3000D5F8184813D5E10302D50020FFF744FE69
:102F4000A20302D50120FFF73FFE630302D5022052
:102F5000FFF73AFE270302D50320FFF735FE75037E
:102F60007FF550AFE00702D50020FFF7C1FEA107B3
:102F700002D50120FFF7BCFE620702D50220FFF751
:102F8000B7FE23077FF53EAF0320FFF7B1FE39E719
:102F9000636DDFF8E4A0019300274FF00109A36DF2
:102FA0009B685FFA87FB9B453FF67DAF019B03EB78
:102FB0004B13D3F8001901F44021B1F5802F1FD134
:102FC000D3F8001900291BDAD3F8001941F0904119
:102FD000C3F80019D3F800190029FBDB5946606DCE
:102FE000FFF718FC218909FA0BF321EA0303238177
:102FF00004EB8B03DB689B6813B159465046984736
:103000000137CCE7910708BFD7F80080072A98BF9F
:1030100003F8018B02F1010298BF4FEA182884E7F8
:10302000023304EB830207F580575268D2F818C0C8
:10303000DCF80820DCE9001CA1EB0C0C0021884224
:103040000AD104EB830463689B699A6802449A601E
:103050005A6802445A606AE711F0030F08BFD7F8B4
:1030600000808C4588BF02F8018B01F1010188BF07
:103070004FEA1828E3E700BFF82F0020436D03EB69
:103080004111D1F8003B43F40013C1F8003B7047F5
:10309000436D03EB4111D1F8003943F40013C1F83B
:1030A00000397047436D03EB4111D1F8003B23F425
:1030B0000013C1F8003B7047436D03EB4111D1F899
:1030C000003923F40013C1F80039704700F1604360
:1030D00003F561430901C9B283F80013012200F02E
:1030E0001F039A4043099B0003F1604303F56143CA
:1030F000C3F880211A60704730B5039C0172043315
:1031000004FB0325C0E90653049B03630021059BD0
:10311000C160C0E90000C0E90422C0E90842C0E97A
:103120000A11436330BD0000416A0022C0E9041166
:10313000C0E90A22C2606FF00101FEF7E7BE00009D
:10314000D0E90432934201D1C2680AB9181D704710
:103150000020704703691960C2680132C260C26909
:10316000134482690361934224BF436A03610021CF
:10317000FEF7C0BE38B504460D46E3683BB1626950
:10318000131D1268A3621344E362002007E0237A50
:1031900033B929462046FEF79DFE0028EDDA38BDFA
:1031A0006FF00100FBE70000C368C269013BC36028
:1031B0004369134482694361934224BF436A436174
:1031C00000238362036B03B11847704770B5302347
:1031D000044683F31188866A3EB9FFF7CBFF0546A4
:1031E00018B186F31188284670BDA36AE26A13F805
:1031F000015BA362934202D32046FFF7D5FF002371
:1032000083F31188EFE700002DE9F84F04460E46DE
:10321000174698464FF0300989F311880025AA46D1
:10322000D4F828B0BBF1000F09D141462046FFF782
:10323000A1FF20B18BF311882846BDE8F88FD4E9AF
:103240000A12A7EB050B521A934528BF9346BBF110
:10325000400F1BD9334601F1400251F8040B43F8EB
:10326000040B9142F9D1A36A40334036A362403542
:10327000D4E90A239A4202D32046FFF795FF8AF346
:103280001188BD42D8D289F31188C9E730465A4621
:10329000FDF712FDA36A5B445E44A3625D44E7E769
:1032A00010B5029C0172043303FB0421C0E906132C
:1032B0000023C0E90A33039B0363049BC460C0E995
:1032C0000000C0E90422C0E90842436310BD0000C9
:1032D000026AC260426AC0E904220022C0E90A22EE
:1032E0006FF00101FEF712BED0E904239A4201D12A
:1032F000C26822B9184650F8043B0B60704700239F
:103300001846FAE7C368C2690133C36043691344CE
:1033100082694361934224BF436A43610021FEF7FF
:10332000E9BD000038B504460D46E3683BB12369AA
:103330001A1DA262E2691344E362002007E0237AC7
:1033400033B929462046FEF7C5FD0028EDDA38BD21
:103350006FF00100FBE7000003691960C268013AE1
:10336000C260C269134482690361934224BF436A05
:10337000036100238362036B03B1184770470000A9
:1033800070B530230D460446114683F31188866AD2
:103390002EB9FFF7C7FF10B186F3118870BDA36A7D
:1033A0001D70A36AE26A01339342A36204D3E16908
:1033B00020460439FFF7D0FF002080F31188EDE7A5
:1033C0002DE9F84F04460D46904699464FF0300AD5
:1033D0008AF311880026B346A76A4FB949462046AA
:1033E000FFF7A0FF20B187F311883046BDE8F88FC2
:1033F000D4E90A073A1AA8EB0607974228BF1746EE
:10340000402F1BD905F1400355F8042B40F8042B3D
:103410009D42F9D1A36A4033A3624036D4E90A231E
:103420009A4204D3E16920460439FFF795FF8BF3F4
:1034300011884645D9D28AF31188CDE729463A4604
:10344000FDF73AFCA36A3B443D44A3623E44E5E7F2
:10345000D0E904239A4217D1C3689BB1836A8BB128
:10346000043B9B1A0ED01360C368013BC360C36961
:103470001A44836902619A4224BF436A03610023AC
:1034800083620123184670470023FBE700F030B940
:103490004FF08043586A70474FF0804300225863D2
:1034A0001A610222DA6070474FF080430022DA602E
:1034B000704700004FF0804358637047FEE70000FC
:1034C00070B51B4B01630025044686B058608562C9
:1034D0000E4600F0BFF804F11003C4E904334FF0C6
:1034E000FF33C4E90635C4E90044A560E562FFF78F
:1034F000CFFF2B460246C4E9082304F134010D4AEC
:10350000256580232046FEF79BFC0123E0600A4AE4
:103510000375009272680192B268CDE90223074BED
:103520006846CDE90435FEF7B3FC06B070BD00BFB8
:1035300090280020903D0008953D0008BD3400080B
:10354000024AD36A1843D062704700BF2826002081
:103550004B6843608B688360CB68C3600B694361D1
:103560004B6903628B6943620B680360704700001C
:1035700008B5264B26481A6940F2FF110A431A6122
:103580001A6922F4FF7222F001021A611A691A6B99
:103590000A431A631A6D0A431A651E4A1B6D1146C7
:1035A000FFF7D6FF02F11C0100F58060FFF7D0FFA6
:1035B00002F1380100F58060FFF7CAFF02F1540103
:1035C00000F58060FFF7C4FF02F1700100F5806034
:1035D000FFF7BEFF02F18C0100F58060FFF7B8FF36
:1035E00002F1A80100F58060FFF7B2FF02F1C4010B
:1035F00000F58060FFF7ACFF02F1E00100F58060AC
:10360000FFF7A6FFBDE8084000F0EEB80038024022
:10361000000002409C3D000808B500F067FAFEF784
:10362000D3FBFFF793F8BDE80840FEF75BBE000050
:1036300070470000EFF3098305494A6B22F001024D
:103640004A63683383F30988002383F31188704742
:1036500000EF00E0302080F3118862B60C4B0D4A79
:10366000D96821F4E0610904090C0A43DA60D3F84F
:10367000FC20094942F08072C3F8FC200A6842F03D
:1036800001020A602022DA7783F82200704700BF27
:1036900000ED00E00003FA05001000E010B5302353
:1036A00083F311880E4B5B6813F4006314D0F1EEC2
:1036B000103AEFF30984683C4FF08073E361094BE3
:1036C000DB6B236684F30988FEF752FB10B1064BCF
:1036D000A36110BD054BFBE783F31188F9E700BF39
:1036E00000ED00E000EF00E02F03000832030008C7
:1036F0000F4B1A6C42F001021A641A6E42F001027A
:103700001A660C4A1B6E936843F0010393604FF0F6
:10371000804353229A624FF0FF32DA6200229A61AC
:103720005A63DA605A6001225A611A60704700BF1A
:1037300000380240002004E04FF0804208B51169D3
:10374000D3680B40D9B2C9439B07116107D5302319
:1037500083F31188FEF74EFB002383F3118808BD25
:103760001F4B1A696FEAC2526FEAD2521A611A6984
:10377000C2F308021A614FF0FF301A695A695861A2
:1037800000215A6959615A691A6A62F080521A62B4
:103790001A6A02F080521A621A6A5A6A58625A6A9F
:1037A00059625A6A1A6C42F080521A641A6E42F0D8
:1037B00080521A661A6E0B4A106840F480701060CE
:1037C000186F00F44070B0F5007F1EBF4FF48030DA
:1037D00018671967536823F40073536000F05EB9EB
:1037E0000038024000700040334B4FF080521A64A2
:1037F000324A4FF4404111601A6842F001021A60E7
:103800001A689107FCD59A6822F003029A602A4B45
:103810009A6812F00C02FBD1196801F0F9011960E5
:103820009A601A6842F480321A601A689203FCD5D2
:103830005A6F42F001025A671F4B5A6F9007FCD52E
:103840001F4A5A601A6842F080721A601B4A536815
:103850005904FCD5184B1A689201FCD5194A9A6094
:10386000194B1A68194B9A42194B21D1194A116800
:10387000194A91421CD140F205121A60144A136889
:1038800003F00F03052BFAD10B4B9A6842F00202AA
:103890009A609A6802F00C02082AFAD15A6C42F433
:1038A00080425A645A6E42F480425A665B6E704798
:1038B00040F20572E1E700BF0038024000700040AE
:1038C0001054400700948838002004E01164002060
:1038D000003C024000ED00E041C20F41074A08B53C
:1038E000536903F00103536123B1054A13680BB117
:1038F00050689847BDE80840FFF7D0BE003C014043
:1039000070300020074A08B5536903F00203536181
:1039100023B1054A93680BB1D0689847BDE80840C9
:10392000FFF7BCBE003C014070300020074A08B5DC
:10393000536903F00403536123B1054A13690BB1C2
:1039400050699847BDE80840FFF7A8BE003C014019
:1039500070300020074A08B5536903F0080353612B
:1039600023B1054A93690BB1D0699847BDE8084077
:10397000FFF794BE003C014070300020074A08B5B4
:10398000536903F01003536123B1054A136A0BB165
:10399000506A9847BDE80840FFF780BE003C0140F0
:1039A00070300020164B10B55C6904F478725A61CF
:1039B000A30604D5134A936A0BB1D06A98476006F0
:1039C00004D5104A136B0BB1506B9847210604D5F0
:1039D0000C4A936B0BB1D06B9847E20504D5094AAA
:1039E000136C0BB1506C9847A30504D5054A936C32
:1039F0000BB1D06C9847BDE81040FFF74FBE00BF39
:103A0000003C014070300020194B10B55C6904F493
:103A10007C425A61620504D5164A136D0BB1506D94
:103A20009847230504D5134A936D0BB1D06D984781
:103A3000E00404D50F4A136E0BB1506E9847A104F1
:103A400004D50C4A936E0BB1D06E9847620404D52E
:103A5000084A136F0BB1506F9847230404D5054AE9
:103A6000936F0BB1D06F9847BDE81040FFF716BEBB
:103A7000003C01407030002008B50348FDF786FA8D
:103A8000BDE80840FFF70ABEBC23002008B5FFF7D9
:103A900053FEBDE80840FFF701BE0000062108B54F
:103AA0000846FFF713FB06210720FFF70FFB06214F
:103AB0000820FFF70BFB06210920FFF707FB062173
:103AC0000A20FFF703FB06211720FFF7FFFA062164
:103AD0002820FFF7FBFA07211C20FFF7F7FABDE8C3
:103AE00008400C212520FFF7F1BA000008B5FFF7C8
:103AF00037FE00F00DF8FDF75DFCFDF743FEFDF726
:103B00001BFDFFF795FDBDE80840FFF7BFBC0000B7
:103B10000023054A19460133102BC2E9001102F1B6
:103B20000802F8D1704700BF70300020034611F83A
:103B3000012B03F8012B002AF9D1704753544D3360
:103B400032463F3F3F0053544D33324634307800C5
:103B500053544D3332463432780053544D33324649
:103B60003434365858000000012033000010410062
:103B700001105A0003105900071031000000000026
:103B80003C3B000813040000463B000819040000F9
:103B9000503B0008210400005A3B0008009600003A
:103BA0000000000000000000000000000000000015
:103BB0000000000075130008611300089D13000841
:103BC0008913000895130008811300086D1300087D
:103BD00059130008A913000800000000B5140008DC
:103BE000A1140008DD140008C9140008D514000849
:103BF000C1140008AD14000899140008E914000865
:103C00000000000001000000000000006330000020
:103C10000C3C00088026002090280020417264752A
:103C200050696C6F740025424F415244252D424C1F
:103C3000002553455249414C250000000200000078
:103C400000000000D11600083D17000840004000A9
:103C5000302D0020402D0020020000000000000058
:103C600003000000000000008117000800000000B1
:103C700010000000502D0020000000000100000096
:103C800000000000F82F002001010200812200083E
:103C9000912100082D220008112200084300000095
:103CA000A43C000809024300020100C032090400DC
:103CB0000001020201000524001001052401000199
:103CC000042402020524060001070582030800FF00
:103CD00009040100020A000000070501024000007B
:103CE000070581024000000012000000F03C0008BF
:103CF00012011001020000400912415700020102A6
:103D0000030100000403090425424F4152442500E9
:103D100041434E532D434D3450696C6F7400303124
:103D20003233343536373839414243444546000052
:103D30000040000000400000004000000040000083
:103D4000000001000000020000000200000002006C
:103D5000000002000000020000000200000002005B
:103D600000000000C51800087D1B0008291C000881
:103D70004000400058300020583000200100000072
:103D800068300020800000004001000003000000B7
:103D90006D61696E0069646C650000000001A81621
:103DA00000000000AAAAAAAA00011410FFDF000068
:103DB0000000000070A70A000000000100000000E1
:103DC000AAAAAAAA00000001FFFF0000000000004C
:103DD000000000004000005000000000AAAAAAAAAB
:103DE00040000040FFBF0000000000000000000095
:103DF0001000000000000000AAAAAAAA10000000FB
:103E0000FFFF0000000000000000000000000000B4
:103E100000000000AAAAAAAA00000000FFFF0000FC
:103E20000000000000000000000000000000000092
:103E3000AAAAAAAA00000000FFFF000000000000DC
:103E4000000000000000000000000000AAAAAAAACA
:103E500000000000FFFF0000000000000000000064
:103E600000000000000000000A0000000000000048
:103E7000030000000000000000000000000000003F
:103E80000000000000000000000000000000000032
:103E900000000000000000005B04000000000000C3
:103EA00000000F0000000000FF0000009828002024
:103EB000BC230020009600000000080096000000CF
:103EC0000008000004000000043D0008000000009D
:103ED00000000000000000000000000000000000E2
:103EE00000000000FFFFFFFFFFFFFFFFFFFFFFFFDE
:103EF000FFFFFFFFFFFFFFFFFFFFFFFFFFFFFFFFD2
:103F0000FFFFFFFFFFFFFFFFFFFFFFFFFFFFFFFFC1
:103F1000FFFFFFFFFFFFFFFFFFFFFFFFFFFFFFFFB1
:103F2000FFFFFFFFFFFFFFFFFFFFFFFFFFFFFFFFA1
:020000040801F1
:1000000000060020290F0108B1540A080D540A08FF
:1000100079540A080D540A0845540A082B0F0108A0
:100020002B0F01082B0F01082B0F0108598A0C0810
:100030002B0F01082B0F01082B0F01082B0F0108B4
:100040002B0F01082B0F01082B0F01082B0F0108A4
:100050002B0F01082B0F0108399C0C08619C0C0820
:10006000899C0C08B19C0C08D99C0C08B9490C0857
:10007000E1490C080D4A0C08394A0C08654A0C087D
:100080008D4A0C08B94A0C083D490C082B0F010891
:100090002B0F01082B0F01082B0F0108019D0C08E5
:1000A000399E0C083D9E0C08519E0C08559E0C086C
:1000B000599E0C086D9E0C082B0F010849500C0826
:1000C000F1510C082B0F01082B0F01082B0F010811
:1000D0002B0F0108D59D0C08E99D0C08FD9D0C080F
:1000E000659D0C082B0F01082B0F0108919E0C0831
:1000F000959E0C08A99E0C08AD9E0C08E54A0C08BC
:100100002B0F01082B0F0108819E0C082B0F0108F3
:10011000119E0C08259E0C082B0F01082B0F0108BF
:10012000114B0C08394B0C08654B0C08914B0C0813
:10013000BD4B0C082B0F01082B0F01082B0F0108DA
:100140002B0F01082B0F01082B0F010875910C08CC
:10015000E54B0C08114C0C083D4C0C082B0F01080A
:100160002B0F01082B0F01082B0F01082B0F010883
:100170002B0F01082B0F01082B0F01082B0F010873
:100180002B0F01082B0F01082B0F01082B0F010863
:100190002B0F01082B0F01082B0F01082B0F010853
:1001A0002B0F01082B0F01082B0F01082B0F010843
:1001B0002B0F01082B0F01082B0F01082B0F010833
:1001C0002B0F01082B0F01082B0F01082B0F010823
:1001D0002B0F01082B0F01082B0F01082B0F010813
:1001E000D55F01080930030899A30408695D060872
:1001F000956306088DCD0608151C0708D52307084A
:1002000009270708358A070809AE0708314F08088B
:10021000299F08086D4D0A08754F0B08B1BA0B08E5
:1002200089DF0B0859F50B08B5220C08CD280C08FE
:1002300081F0004102E000BF83F0004330B54FEA97
:1002400041044FEA430594EA050F08BF90EA020F04
:100250001FBF54EA000C55EA020C7FEA645C7FEA97
:10026000655C00F0E2804FEA5454D4EB5555B8BFBA
:100270006D420CDD2C4480EA020281EA030382EA2B
:10028000000083EA010180EA020281EA0303362DBD
:1002900088BF30BD11F0004F4FEA01314FF4801C90
:1002A0004CEA113102D0404261EB410113F0004FA2
:1002B0004FEA03334CEA133302D0524263EB430359
:1002C00094EA050F00F0A780A4F10104D5F1200EF7
:1002D0000DDB02FA0EFC22FA05F2801841F1000152
:1002E00003FA0EF2801843FA05F359410EE0A5F126
:1002F00020050EF1200E012A03FA0EFC28BF4CF057
:10030000020C43FA05F3C01851EBE37101F000450C
:1003100007D54FF0000EDCF1000C7EEB00006EEB19
:100320000101B1F5801F1BD3B1F5001F0CD34908A3
:100330005FEA30004FEA3C0C04F101044FEA4452FA
:1003400012F5800F80F09A80BCF1004F08BF5FEA81
:10035000500C50F1000041EB045141EA050130BD61
:100360005FEA4C0C404141EB0101013C28BFB1F573
:10037000801FE9D291F0000F04BF01460020B1FABE
:1003800081F308BF2033A3F10B03B3F120020CDA91
:100390000C3208DD02F1140CC2F10C0201FA0CF06F
:1003A00021FA02F10CE002F11402D8BFC2F1200CD4
:1003B00001FA02F120FA0CFCDCBF41EA0C0190408A
:1003C000E41AA2BF01EB0451294330BD6FEA0404D3
:1003D0001F3C1CDA0C340EDC04F11404C4F12002BE
:1003E00020FA04F001FA02F340EA030021FA04F3D0
:1003F00045EA030130BDC4F10C04C4F1200220FA27
:1004000002F001FA04F340EA0300294630BD21FA64
:1004100004F0294630BD94F0000F83F4801306BF2A
:1004200081F480110134013D4EE77FEA645C18BF1E
:100430007FEA655C29D094EA050F08BF90EA020FB5
:1004400005D054EA000C04BF1946104630BD91EAAD
:10045000030F1EBF0021002030BD5FEA545C05D1B0
:100460004000494128BF41F0004130BD14F58004EF
:100470003CBF01F5801130BD01F0004545F0FE4163
:1004800041F470014FF0000030BD7FEA645C1ABF98
:10049000194610467FEA655C1CBF0B46024650EACF
:1004A000013406BF52EA033591EA030F41F40021FB
:1004B00030BD00BF90F0000F04BF0021704730B581
:1004C0004FF4806404F132044FF000054FF0000156
:1004D00050E700BF90F0000F04BF0021704730B517
:1004E0004FF4806404F1320410F0004548BF4042EC
:1004F0004FF000013EE700BF42004FEAE2014FEA41
:1005000031014FEA02701FBF12F07F4393F07F4F1B
:1005100081F06051704732F07F4208BF704793F01E
:100520007F4F04BF41F40021704730B54FF4607431
:1005300001F0004521F000411CE700BF50EA010234
:1005400008BF704730B54FF000050AE050EA0102DD
:1005500008BF704730B511F0004502D5404261EB4D
:1005600041014FF4806404F132045FEA915C3FF48E
:10057000D8AE4FF003025FEADC0C18BF03325FEA2B
:10058000DC0C18BF033202EBDC02C2F1200300FADC
:1005900003FC20FA02F001FA03FE40EA0E0021FA01
:1005A00002F11444BDE600BF70B54FF0FF0C4CF4EF
:1005B000E06C1CEA11541DBF1CEA135594EA0C0FA1
:1005C00095EA0C0F00F0DEF82C4481EA030621EADC
:1005D0004C5123EA4C5350EA013518BF52EA033517
:1005E00041F4801143F4801338D0A0FB02CE4FF0C9
:1005F0000005E1FB02E506F00042E0FB03E54FF0F9
:100600000006E1FB03569CF0000F18BF4EF0010EF0
:10061000A4F1FF04B6F5007F64F5407404D25FEAEC
:100620004E0E6D4146EB060642EAC62141EA55519F
:100630004FEAC52040EA5E504FEACE2EB4F1FD0CE1
:1006400088BFBCF5E06F1ED8BEF1004F08BF5FEA5F
:10065000500E50F1000041EB045170BD06F0004611
:1006600046EA010140EA020081EA0301B4EB5C04BE
:10067000C2BFD4EB0C0541EA045170BD41F48011B6
:100680004FF0000E013C00F3AB8014F1360FDEBFDB
:10069000002001F0004170BDC4F10004203C35DAB7
:1006A0000C341BDC04F11404C4F1200500FA05F33A
:1006B00020FA04F001FA05F240EA020001F00042DB
:1006C00021F0004110EBD37021FA04F642EB060151
:1006D0005EEA430E08BF20EAD37070BDC4F10C047B
:1006E000C4F1200500FA04F320FA05F001FA04F23F
:1006F00040EA020001F0004110EBD37041F100012B
:100700005EEA430E08BF20EAD37070BDC4F1200535
:1007100000FA05F24EEA020E20FA04F301FA05F29D
:1007200043EA020321FA04F001F0004121FA04F245
:1007300020EA020000EBD3705EEA430E08BF20EA15
:10074000D37070BD94F0000F0FD101F0004640004F
:1007500041EB010111F4801F08BF013CF7D041EAD1
:10076000060195F0000F18BF704703F000465200D5
:1007700043EB030313F4801F08BF013DF7D043EAA6
:100780000603704794EA0C0F0CEA135518BF95EA5C
:100790000C0F0CD050EA410618BF52EA4306D1D1E3
:1007A00081EA030101F000414FF0000070BD50EA02
:1007B000410606BF1046194652EA430619D094EA8C
:1007C0000C0F02D150EA013613D195EA0C0F05D176
:1007D00052EA03361CBF104619460AD181EA0301CA
:1007E00001F0004141F0FE4141F470014FF0000082
:1007F00070BD41F0FE4141F4780170BD70B54FF01D
:10080000FF0C4CF4E06C1CEA11541DBF1CEA13559C
:1008100094EA0C0F95EA0C0F00F0A7F8A4EB05047E
:1008200081EA030E52EA03354FEA013100F0888075
:100830004FEA03334FF0805545EA131343EA12633E
:100840004FEA022245EA111545EA10654FEA0026F3
:100850000EF000419D4208BF964244F1FD0404F5AC
:10086000407402D25B084FEA3202B61A65EB030508
:100870005B084FEA32024FF480104FF4002CB6EBC5
:10088000020E75EB030E22BFB61A754640EA0C0045
:100890005B084FEA3202B6EB020E75EB030E22BF85
:1008A000B61A754640EA5C005B084FEA3202B6EBC6
:1008B000020E75EB030E22BFB61A754640EA9C0085
:1008C0005B084FEA3202B6EB020E75EB030E22BF55
:1008D000B61A754640EADC0055EA060E18D04FEA13
:1008E000051545EA16754FEA06164FEAC30343EAB3
:1008F00052734FEAC2025FEA1C1CC0D111F4801F80
:100900000BD141EA00014FF000004FF0004CB6E778
:1009100011F4801F04BF01430020B4F1FD0C88BF17
:10092000BCF5E06F3FF6AFAEB5EB030C04BFB6EB22
:10093000020C5FEA500C50F1000041EB045170BD15
:100940000EF0004E4EEA113114EB5C04C2BFD4EB42
:100950000C0541EA045170BD41F480114FF0000EC6
:10096000013C90E645EA060E8DE60CEA135594EA42
:100970000C0F08BF95EA0C0F3FF43BAF94EA0C0F45
:100980000AD150EA01347FF434AF95EA0C0F7FF4BA
:1009900025AF104619462CE795EA0C0F06D152EA0E
:1009A00003353FF4FDAE1046194622E750EA4106F2
:1009B00018BF52EA43067FF4C5AE50EA41047FF403
:1009C0000DAF52EA43057FF4EBAE12E74FF0FF3C68
:1009D00006E000BF4FF0010C02E000BF4FF0010C39
:1009E0004DF804CD4FEA410C7FEA6C5C4FEA430CB2
:1009F00018BF7FEA6C5C1BD001B050EA410C0CBF01
:100A000052EA430C91EA030F02BF90EA020F002062
:100A1000704710F1000F91EA030F58BF994208BFC9
:100A200090422CBFD8176FEAE37040F00100704786
:100A30004FEA410C7FEA6C5C02D150EA013C07D1DD
:100A40004FEA430C7FEA6C5CD6D152EA033CD3D028
:100A50005DF8040B704700BF8446104662468C4622
:100A60001946634600E000BF01B5FFF7B7FF002855
:100A700048BF10F1000F01BD4DF808EDFFF7F4FF7E
:100A80000CBF012000205DF808FB00BF4DF808ED09
:100A9000FFF7EAFF34BF012000205DF808FB00BF2C
:100AA0004DF808EDFFF7E0FF94BF012000205DF84E
:100AB00008FB00BF4DF808EDFFF7CEFF94BF012003
:100AC00000205DF808FB00BF4DF808EDFFF7C4FFFC
:100AD00034BF012000205DF808FB00BF4FEA410C45
:100AE0007FEA6C5C02D150EA013C0AD14FEA430C28
:100AF0007FEA6C5C02D152EA033C02D14FF0000065
:100B000070474FF0010070474FEA410212F50012A2
:100B100015D211D56FF47873B3EB625212D94FEA44
:100B2000C12343F0004343EA505311F0004F23FA2E
:100B300002F018BF404270474FF00000704750EA83
:100B4000013005D111F0004008BF6FF00040704740
:100B50004FF00000704700BF4A0011D212F500129A
:100B600011D20DD56FF47873B3EB62520ED44FEA05
:100B7000C12343F0004343EA505323FA02F0704785
:100B80004FF00000704750EA013002D14FF0FF30C3
:100B900070474FF0000070474FEA4102B2F1E04366
:100BA00024BFB3F5001CDCF1FE5C0DD901F0004C54
:100BB0004FEAC0024CEA5070B2F1004F40EB8300A4
:100BC00008BF20F00100704711F0804F21D113F1D0
:100BD0003872BCBF01F00040704741F480114FEA09
:100BE0005252C2F11802C2F1200C10FA0CF320FA92
:100BF00002F018BF40F001004FEAC1234FEAD323AF
:100C000003FA0CFC40EA0C0023FA02F34FEA430318
:100C1000CCE77FEA625307D150EA01331EBF4FF0A1
:100C2000FE4040F44000704701F0004040F0FE40BC
:100C300040F40000704700BF80F0004002E000BFB9
:100C400081F0004142001FBF5FEA410392EA030FB7
:100C50007FEA226C7FEA236C6AD04FEA1262D2EB01
:100C60001363C1BFD218414048404140B8BF5B4206
:100C7000192B88BF704710F0004F40F4000020F09F
:100C80007F4018BF404211F0004F41F4000121F0B5
:100C90007F4118BF494292EA030F3FD0A2F10102FF
:100CA00041FA03FC10EB0C00C3F1200301FA03F13D
:100CB00000F0004302D5494260EB4000B0F5000F60
:100CC00013D3B0F1807F06D340084FEA310102F11F
:100CD0000102FE2A51D2B1F1004F40EBC25008BFD1
:100CE00020F0010040EA03007047490040EB00009B
:100CF000013A28BFB0F5000FEDD2B0FA80FCACF19C
:100D0000080CB2EB0C0200FA0CF0AABF00EBC250C8
:100D100052421843BCBFD0401843704792F0000FB6
:100D200081F4000106BF80F400000132013BB5E709
:100D30004FEA41037FEA226C18BF7FEA236C21D07F
:100D400092EA030F04D092F0000F08BF08467047E4
:100D500090EA010F1CBF0020704712F07F4F04D1B2
:100D6000400028BF40F00040704712F100723CBFC5
:100D700000F50000704700F0004343F0FE4040F4EF
:100D8000000070477FEA226216BF08467FEA2363AD
:100D90000146420206BF5FEA412390EA010F40F498
:100DA000800070474FF0000304E000BF10F00043E4
:100DB00048BF40425FEA000C08BF704743F09643CB
:100DC00001464FF000001CE050EA010208BF7047E6
:100DD0004FF000030AE000BF50EA010208BF70476D
:100DE00011F0004302D5404261EB41015FEA010C82
:100DF00002BF84460146002043F0B64308BFA3F17A
:100E00008053A3F50003BCFA8CF2083AA3EBC2535B
:100E100010DB01FA02FC634400FA02FCC2F120027A
:100E2000BCF1004F20FA02F243EB020008BF20F0B1
:100E30000100704702F1200201FA02FCC2F1200217
:100E400050EA4C0021FA02F243EB020008BF20EA0C
:100E5000DC7070477BB972B90029BEBF00204FF02B
:100E6000004106E008BF00281CBF6FF000414FF0B2
:100E7000FF3000F057B8ADF1080C6DE904CE002941
:100E800009DB002B1ADBB3F0BDF8DDF804E0DDE987
:100E9000022304B07047404261EB4101002B1BDB91
:100EA000B3F0B0F8DDF804E0DDE9022304B040421D
:100EB00061EB4101524263EB43037047524263EBE3
:100EC0004303B3F09FF8DDF804E0DDE9022304B04A
:100ED000404261EB41017047524263EB4303B3F080
:100EE00091F8DDF804E0DDE9022304B0524263EB3F
:100EF0004303704753B94AB9002908BF00281CBFF3
:100F00004FF0FF314FF0FF3000F00CB8ADF1080C9E
:100F10006DE904CEB3F076F8DDF804E0DDE90223F4
:100F200004B07047704700BF02E000F000F8FEE731
:100F300072B6374880F30888364880F30988364807
:100F40003649086040F20000CCF200004EF63471E1
:100F5000CEF200010860BFF34F8FBFF36F8F40F2F6
:100F60000000C0F2F0004EF68851CEF20001086099
:100F7000BFF34F8FBFF36F8F4FF00000E1EE100A09
:100F80004EF63C71CEF200010860062080F3148812
:100F9000BFF36F8FB7F0BEFDB8F0ECFC4FF05530EB
:100FA0001F491B4A91423CBF41F8040BFAE71D4917
:100FB000184A91423CBF41F8040BFAE71A491B4A10
:100FC0001B4B9A423EBF51F8040B42F8040BF8E762
:100FD00000201849184A91423CBF41F8040BFAE737
:100FE000B7F09CFDB8F018FD144C154DAC4203DA77
:100FF00054F8041B8847F9E701F010FB114C124D1F
:10100000AC4203DA54F8041B8847F9E7B7F084BD13
:1010100000060020002200200000010808ED00E08A
:10102000000000200006002028620F080022002097
:101030004C2B0020502B002054580120E0010108C7
:101040003002010830020108300201082DE9F04F9A
:101050002DED108AC1F80CD0C3689D46BDEC108AF6
:10106000BDE8F08F002383F311882846A0470020B5
:10107000B6F05AFDFEE7B6F0EDFB00DFFEE700003C
:1010800010F8012B11F8013B012A28BF9A42F7D032
:10109000D01A704701F0FF01102A2BDB10F0070F68
:1010A00008D010F8013B013A8B422DD010F0070F09
:1010B00042B3F6D1F0B441EA012141EA014122F004
:1010C00007047FF000070023F0E80256083C85EA99
:1010D000010586EA010685FA47F5A3FA87F586FA3F
:1010E00047F6A5FA87F68EB9EED1F0BC01F0FF0104
:1010F00002F0070232B110F8013B013A83EA010322
:1011000013B1F8D10020704701387047002D06BF99
:1011100035460338073815F0010F07D1013015F4B3
:10112000807F02BF013015F4C03F0130F0BC0138B0
:10113000704700BF034613F8012B002AFBD1181A91
:1011400001387047036800221B68184710B5036810
:101150005B680446984708B194F84D0010BD000044
:101160002DE9F041634B03F5A04490B094F9EC28CD
:1011700005460F46002A00F0BA8094F834693EB95B
:101180005D4A82F075FE0026304610B0BDE8F08161
:10119000B3F9A4201AB9B3F8A220A3F8A420B3F895
:1011A000A430632B05D8554A3946284682F060FEA4
:1011B00000263222002103A8BCF010FFD4F84C080E
:1011C000036803AA1B6832219847804630B94C4A0D
:1011D00003AB3946284682F04BFE4646B4F8283821
:1011E000A3F57A739BB241F65832934206D9454B28
:1011F0003A462021284682F03DFC002694F95C2ADC
:1012000094F9143A002A68DD002B5ADD3E4B3A4629
:101210002021284682F02EFC00263C49D4F85808AC
:10122000322303AA8DF064FD804640B903AB0093DE
:101230003A46374B2021284682F01CFC4646354969
:10124000D4F85408322303AA8AF0DAFD804640B964
:1012500003AB00933A462E4B2021284682F00AFC2D
:1012600046462021284682F0FDFBC8B104F6A803BB
:10127000D3ED007A9FED287AF0EEE77AF4EEC77AA4
:10128000F1EE10FA0CD594F95C3A002B02DD94F8DB
:10129000C03A2BB9214A3946284682F0E9FD00269A
:1012A00094F95C3A002B7FF76FAF94F91939002B52
:1012B0003FF46AAF1A4B3A462021284682F0DAFB07
:1012C00061E794F8C08AB8F1000F06D1154B3A4691
:1012D0002021284682F0CEFB464694F9143A002B92
:1012E0009BDD94F8453A002B97D10F4B8FE70126F1
:1012F0004AE700BF602B0020C40B0D08E60B0D0869
:101300000D0C0D08180C0D082A0C0D089B0C0D086F
:101310009F0C0D08B10C0D0800000034B50C0D0831
:10132000CF0C0D08500C0D08760C0D0838B504468E
:1013300082F07CFB114B93F8F819114B1D68EB6A96
:101340001A68002908BF01461268184690475DF0E8
:101350004BFBEB6A93F89C105CF082FC94F83730FE
:101360005BB194F0DBF8EB6AD3F8A030C01AB0F5AB
:10137000FA6F24BF002384F8373038BD607B00202B
:10138000E886002008B5FFF7D1FF054B05481B682C
:10139000DB6A93F89C10BDE8084010F0C7BD00BFA1
:1013A000E88600208083002070B50E46054667F071
:1013B0005FFD67F021FD10B90124204670BD0A4B86
:1013C00093F92232012BF7D167F052FD437A002BBB
:1013D000F2D167F04DFD847A002CEDD1034A3146FD
:1013E000284682F045FDE8E7604B0020E60C0D083A
:1013F00082F0D4BA2DE9F0432DED028BC37F91B07A
:1014000004460D4633B10126304611B0BDEC028BC7
:10141000BDE8F08390F90430002BF4D083683BB929
:1014200003685B6B11B0BDEC028BBDE8F04318475D
:10143000744B1B68D86AFFF789FE80460028E2D10A
:101440002946204683F080FB6F4F064629462046FA
:1014500082F036FD97ED8D7AD7ED8C7AB4EEE77A8F
:101460000640F1EE10FAF6B209D597F92C32032BAB
:1014700005D0664A2946204682F0FAFC4646D7ED5A
:10148000757AB0EE088AF4EEC87AF1EE10FA0BD550
:1014900017EE900AFFF730F85D4ACDE900012946C2
:1014A000204682F0E5FC0026D7ED767AF4EEC87A85
:1014B000F1EE10FA0BD517EE900AFFF71DF8554A1A
:1014C000CDE900012946204682F0D2FC0026D7ED66
:1014D000777AB8EE087AF4EEC77AF1EE10FA0BDDFF
:1014E00017EE900AFFF708F84B4ACDE900012946AC
:1014F000204682F0BDFC0026B7F9C031042B07DC82
:10150000052200922946454A204682F0B1FC002679
:10151000D7F8400C67F0F8FC80B197F922326BB134
:10152000D7F8403CB7F92422B3F90E309A4205DAD5
:101530003B4A2946204682F09BFC0026294620464D
:10154000FFF732FFDFF8F480814629462046FFF797
:1015500007FE98F8293F002B3FD106EA090600EA6A
:10156000060930484FF4806101F03AF880B1D7F8AD
:10157000403CB3F90C30A3F2E24292B2B2F5FA7FEA
:1015800006D9294A2946204682F072FC4FF000090C
:10159000264890F8783543BB4E460DF10C093222AF
:1015A00000214846BCF01AFDD8F8140F4A463221F3
:1015B00009F0ACF9074600287FF426AFD8F8140FDD
:1015C00003689B6898471A4ACDF80090034629465D
:1015D000204682F04DFC3E4616E7164A2946204634
:1015E00082F046FC4FF00009BBE700F5AE6038F032
:1015F00027F906460028CFD10F4A2946204682F017
:1016000037FCCAE7E8860020604B0020F50C0D0887
:10161000180D0D08380D0D085A0D0D087C0D0D081C
:101620009B0D0D08602B0020D60D0D08607B00205F
:10163000E36A0D08C10D0D08FE0D0D08606B00205A
:1016400070B505460E46FFF7AFFE31460446284604
:1016500083F01EF92040C0B270BD0000F0B591B01B
:1016600005460E4682F0BCFC0446C8B1102128464F
:1016700082F0F8F9A8B103AF322200213846BCF05D
:10168000ADFC1BF071FA32233A4601211AF032FD0B
:1016900038B9054B009732461021284682F0EAF906
:1016A0000024204611B0F0BD120E0D0838B50446D6
:1016B0000D46A9B990F9103083B1144813F0DCFB42
:1016C000DFED137AB0EEC00AB4EEE70AF1EE10FADD
:1016D00006D4104A0121204682F0CAFB002038BD02
:1016E000A3685BB10C4B1B68D86AFFF72FFD38B1BC
:1016F00066F03AF9094A04215FF042F90120EEE769
:1017000029462046BDE8384082F024BF602B0020E7
:10171000000000341B0E0D08E88600202D0E0D0879
:1017200038B5044683F0C8FA0546A8B10B4805F061
:10173000D3FF38B10A490B481AF02AFE10B1074806
:1017400000F020FF2046FFF71DFE0123064984F824
:101750003730204683F0A8F9284638BD602B00209A
:10176000B8820020C83D00204F0E0D08F8B5044691
:101770000D461646AAB1012901D9232911D12248C3
:1017800008F096FB50B965B994F91030022B08D0D7
:1017900066F0EAF81D4A06215FF0F2F800252846B7
:1017A000F8BD29463246204683F02EFB0546002828
:1017B000F4D0174ED6F8142F06F674439A4203D08D
:1017C00003F6FC0038F01CFBD6F8140F114F036829
:1017D0009B6B9847D7F8703887F84805012B07D1DD
:1017E00067F046FB542168F06DFA08B9C7F8700835
:1017F0002046FFF7C7FD4FF0FF330749C6F84C3FBF
:10180000204683F051F9CAE7602B00205E0E0D08D8
:10181000606B0020607B0020760E0D082DE9F04FF4
:101820002DED028B91B08946804682F0C1F9BD2131
:1018300007463E4838F07AFA58B13D4B93F9F741E4
:101840003CB93C4B4A464FF48041404682F012F985
:101850002746394E96F8343983B11C22002102A85C
:10186000B6F8A4A5BCF0BAFB04A820F0D7FF06F593
:10187000AE6B0125A6F5A046554505D3384611B0F7
:10188000BDEC028BBDE8F08F0BA820F0C7FF09AAC2
:101890002946584636F04AF80028EFD0BDF8261001
:1018A000304607F00FFC98B3BDF80A30102B2FD14B
:1018B00004A90BA821F0E2FA1D4B9FED207A2048E5
:1018C00003F65852B0EE408A92ED000AB4EEC70A11
:1018D000F1EE10FAB8BF93ED710A20EE000A0EF097
:1018E00015FCF6EE087A60EE277AB4EEE78AF1EEA0
:1018F00010FA0DD517EE900AFEF7FEFD114BCDE95B
:1019000000014A464FF48041404682F0B3F8002778
:101910000DF1240CBCE80F0002AC0FC49CE80700DA
:1019200003C401352270ADB2A6E700BFD08000200D
:10193000604B0020880E0D08607B00200000003402
:1019400080830020B40E0D0800207047014800F08D
:1019500099BD00BF602B002003685B68184700003A
:101960006AF0F6BB67F0D2B92FF0F2BD5CF002BBB3
:1019700008F0EEBB0DF002B814F0C4BC03F064BA7A
:101980005AF0CAB91FF06CB969F08EBF14F020BDCF
:1019900013F0EEBA1EF0ECBC6CF048B966F0D2BEA3
:1019A00065F01EB907F074BD05F0E4B80CF026BB75
:1019B0000CF042BF14F0E2BA14F0BEBD13F00EB941
:1019C00014F01ABC01F088BB00F2545021F090BF13
:1019D00008F0FCB890F8C4220346B02101FB0202D3
:1019E00093F8083392F8A10013B1012828BF012011
:1019F00070470000034808602921117008221A600E
:101A0000704700BF34D70D08F8B5044604F5935667
:101A100000F5AF4058300836FFF788FC002130460B
:101A20001BF014F88021204614F0EAFF18B131F0C1
:101A300009F92FF059FA04F50055D5ED757A9FEDA7
:101A4000317A67EE877A05F65447FDEEE77A04F5BA
:101A5000B44017EE903AC5F8503CD5F8DC313B6005
:101A6000583015F0CDF9F8B9D5F8503C07EE903A5A
:101A700004F5805303F2B44292ED007AF8EEE77A6F
:101A800003F5966367EE877AFDEEE77A17EE902A04
:101A9000C5F8502CD3ED007A97ED007AF0EEE77A96
:101AA00067EE877AC7ED007A04F5AD5106F545700B
:101AB00035F024FA04F5A945D4ED466AD5ED127A3D
:101AC000E6EE807AB0EE670AC5ED127A31F0CCFD11
:101AD00004F5B04085ED120A20300DF015FC04F538
:101AE000B04000212C3087F0CFF84FF40011204691
:101AF00014F086FF20B13046BDE8F84019F01ABA5C
:101B0000F8BD00BF0000C842FFF77EBFF8B500F582
:101B100080430446D3F8140F03689B6B984704F581
:101B2000B04520350646284610F0C2F904F5A04716
:101B3000002897F8073518BF00262BB926B104F501
:101B40003350283087F004F828460FF047FE28B9B4
:101B500097F834393BB197F8613923B12846BDE88D
:101B6000F84010F0FFBBF8BDFFF7D0BF38B54FF419
:101B70008011054614F044FF044620B9012128468F
:101B800014F03EFF04460221284614F039FF50B1FC
:101B900014B9284603F07EF805F593500830BDE8E7
